:100000000C94AB020C94E3020C94E3020C94E30214
:100010000C94E3020C94E3020C94E3020C94E302CC
:100020000C94E3020C94E3020C9473230C94452487
:100030000C94DC1E0C94E3020C94E3020C94E30297
:100040000C94E3020C94E3020C94E3020C94E3029C
:100050000C94E3020C943A1F0C94E3020C94E30218
:100060000C94E3020C94E3020C94E3020C94E3027C
:100070000C94E3020C94E3020C94E3020C94E3026C
:100080000C94E3020C94E3020C94E3020C94E3025C
:100090000C94E3020C94E3020C94E3020C94E3024C
:1000A0000C94E3020C94E3020C94E3025707570705
:1000B00083078307E4070208EE08EE0807087D08B7
:1000C0008E088E08BA16BD16C216C916CE16D316DD
:1000D000D816DD16E216E716EC16F116F416F4162D
:1000E000F416F416F416F416F416F416F416311980
:1000F000A3193919031907193D190A1940194B1980
:100100001519991919194F191D1953197D19211903
:100110005719871927195D1967190E1944191119EB
:1001200047192C196219731993199519FF18351964
:10013000AC19E31CE91CD71CDD1CEF1CF51CFB1CD7
:10014000AD24D424CC25D424CC2520254325CC256E
:100150009A25A9252900D3003A003B003C003D0028
:100160003E003F00400041000000420043004400C8
:10017000460035001E001F00200021002200230041
:1001800024002500260027002D002E002A004C0008
:1001900084002B0014001A000800150017001C0032
:1001A00018000C00120013002F00300031004B002B
:1001B0004D00390004001600070009000A000B007A
:1001C0000D000E000F0033003400280045004800E9
:1001D0004A004E00E1001D001B000600190005004A
:1001E00011001000360037003800E5000000000064
:1001F00052004F00E0002152E300E200A8002C0072
:100200002C000000E600E7006500E40000000000AC
:100210005000510001000100010001000100010037
:1002200001000100010001000000010001000100C7
:10023000010001002B782C782D782E782F783078DB
:100240003178327833780100010001000100490063
:10025000010001002178237825782778297801008A
:100260000100010001000100010001000100010086
:100270000100010022782478267828782A78010065
:100280000100010001000100010001000100010066
:1002900001000100010020780100010001000100BF
:1002A0000100010001000100010001000000000048
:1002B0000100010001000100010001000100010036
:1002C0000100000001000100010001000000000029
:1002D000010001000001010101010101010102020F
:1002E00002020202020202030303030303030304E4
:1002F00004040404040405050505050606060606AF
:10030000070707070708080808090909090A0A0A68
:100310000B0B0B0C0C0C0D0D0D0E0E0E0F0F0F100A
:100320001011111112121313141415151616171794
:10033000181819191A1A1B1B1C1D1D1E1E1F202000
:10034000212222232424252626272829292A2B2C4A
:100350002D2D2E2F30313232333435363738393A6D
:100360003B3C3D3E3F404142434445464748494A65
:100370004C4D4E4F50515354555658595A5B5D5E33
:100380005F616264656668696B6C6D6F70727375CE
:1003900077787A7B7D7E8082838587888A8C8E8F32
:1003A00091939596989A9C9EA0A2A3A5A7A9ABAD60
:1003B000AFB1B3B5B7BABCBEC0C2C4C6C9CBCDCF4E
:1003C000D1D4D6D8DBDDDFE2E4E7E9EBEEF0F3F5FC
:1003D000F8FAFDFF240374007200610076006900E2
:1003E00073006500720067006F00670065006E00B3
:1003F000320030003200340000000E03740072003E
:10040000610076006900730000000403090409021A
:100410003B00020100A0FA090400000103010100F1
:100420000921110100012244000705810308000190
:10043000090401000103000000092111010001224B
:10044000B60007058203200001120100020000002F
:1004500008EDFE240200010102000105010902A1CC
:100460000185020901A100050919012908150025C6
:1004700001950875018102050109300931158125B1
:100480007F95027508810609381581257F950175CC
:10049000088106050C0A38021581257F950175082B
:1004A0008106C0C005010980A101850319012AB791
:1004B00000150126B700950175108100C0050C09D3
:1004C00001A101850419012AA002150126A00295A7
:1004D0000175108100C005010906A1018506050707
:1004E00019E029E715002501950875018102050726
:1004F000190029EF1500250195F075018102050805
:100500001901290595057501910295017503910160
:10051000C005010906A101050719E029E715002515
:10052000019508750181029501750881010507197A
:100530000029FF150026FF009506750881000508B3
:1005400019012905150025019505750191029501EF
:1005500075039101C00011241FBECFEFDAE0DEBFAA
:10056000CDBF04B603FE18C080911104909112040F
:10057000A0911304B09114048730904BA740B04B66
:1005800059F4109211041092120410921304109254
:100590001404E0E0F8E3099511E0A0E0B1E0ECE03C
:1005A000FEE402C005900D92A23BB107D9F724E00A
:1005B000A2EBB1E001C01D92A131B207E1F70E94A8
:1005C00095130C9404270C9400000F931F93CF9362
:1005D000DF93ACE1B1E040E251E0ED0161E070E0B9
:1005E0008991E82FE295EF70F0E021A18F708B01E7
:1005F00002C0000F111F8A95E2F7C801822B81A368
:100600004C175D0769F761E070E08D91E82FE29586
:10061000EF70F0E092A18F709B0101C0220F8A95CC
:10062000EAF7822F8095892382A34A175B0769F72F
:10063000A0E2B1E046E251E061E070E08D91E82F88
:10064000E295EF70F0E021A18F70EB0102C0CC0FBA
:10065000DD1F8A95E2F7CE019C2F9095922391A3FE
:1006600092A1892B82A34A175B0741F7DF91CF91B3
:100670001F910F910895A6E0B0E0E1E4F3E00C943F
:10068000282620E030E0198261E070E0C12CD12CF6
:100690007601C3941C010CE0200E311CECE1F1E06A
:1006A00040E050E0DB01042E02C0AA0FBB1F0A94F9
:1006B000E2F7A223B323042E02C0B595A7950A94AE
:1006C000E2F7AA23B1F010811A83A12FA295AF708F
:1006D000B0E092961C9192970A810F700A835B0199
:1006E00002C0AA0CBB1C0A95E2F7BC82AB82A12A0D
:1006F00016C0B080BA82AB2DA295AF70B0E09296D2
:100700001C9192970B2D0F700A835B0102C0AA0CFB
:10071000BB1C0A95E2F7BC82AB82A094A122929600
:10072000AC924F5F5F4F31964430510509F0BACF1C
:100730000AE10A95F1F700C046015701022E04C0F4
:10074000880C991CAA1CBB1C0A94D2F72401340102
:100750006094709400E211E0FC01912C5F014081F3
:1007600051815E834D83D8018D908D01A82DA29576
:10077000AF704A2F50E0DA0190964C9150E0B82DBE
:10078000BF7002C055954795BA95E2F740FD05C088
:100790004D815E814429552904C04D815E814621E9
:1007A0005721518340833296D5014D915C91AD80A4
:1007B000BE80A416B50611F0992493942E163F0618
:1007C00069F6B980B928B9822F5F3F4F20313105D2
:1007D00009F064CF89812696E2E10C9444268130A9
:1007E00031F038F0823039F4809A889A08958098F0
:1007F00001C0809A88980895CF93DF93D82F0E94E4
:100800008E05C82F882329F0D1FB882780F90E9404
:10081000EF038C2FDF91CF9108951F93CF93DF9338
:10082000D82FC62F0E946904182F8823A9F0D11150
:1008300008C0CC2311F08CEA01C08BEA0E94FE06AE
:100840000BC0D13049F46AE070E0CC2311F08AEAA1
:1008500001C089EA0E94E606812FDF91CF911F91A6
:1008600008951F93CF93DF93182F0E940E0EC82F69
:10087000C2720E940E0ED82FD4740E940E0E817187
:10088000112391F0DD2319F00E94A8151EC08823C2
:1008900019F00E94EA1519C0CC2319F00E94C8155E
:1008A00014C00E942B1611C0DD2319F00E94B71549
:1008B0000CC0882319F00E94FB1507C0CC2319F047
:1008C0000E94D91502C00E943B16DF91CF911F9163
:1008D0000895CF93C62F81E00E94F009882321F06C
:1008E0008C2F0E94310407C0CC2311F089EA01C08B
:1008F0008AEA0E94FE0681E0CF9108958230C8F412
:100900006630B8F44031A8F4E62FF0E096E0899F15
:10091000E00DF11D112484E0EE0FFF1F8A95E1F731
:10092000E40FF11DEE0FFF1FEC5AFE4F85919491DD
:10093000089581E090E008950E947E04089581E08A
:10094000089581E008950E94A10408950E94A304DF
:1009500008950E94A104089508950E94AC0408958A
:10096000A6E0B0E0E6EBF4E00C94372649835A8326
:100970009E833091B90189819A81311115C03E81E0
:10098000332359F0222349F00E94C80A182F682FF8
:1009900089819A810E94A40A03C00E94B60A182F76
:1009A00069817A81812F04C00E94C80A69817A8195
:1009B0000E9419122696E3E00C945326FC01262F80
:1009C0004081518162817381848195810E94B0044C
:1009D0000895CF93DF93EC0161E00E94DE04BE0135
:1009E0000E94A604DF91CF910895CF93DF93EC018D
:1009F00060E00E94DE04BE010E94AD04DF91CF9151
:100A0000089581E008950E9401050895CF93C82FAD
:100A10000E945F098C2F0E9403052FEF84E39CE066
:100A2000215080409040E1F700C00000CF91089530
:100A300081E00E9406050E94601F089580E00E94E8
:100A400006050E94841F08950F931F93CF93DF9391
:100A50008C0161E00E94DE04EC01F80185818111C6
:100A60000E949A16B801CE010E94A904882309F4B5
:100A700049C0B801CE010E94CB1C882309F442C0B2
:100A8000B801CE010E94DB188823E1F1B801CE0144
:100A90000E94B1188823B1F1B801CE010E94A316BB
:100AA000882381F1F8018581882341F1C330FCE777
:100AB000DF07D1F040F4C115ECE7DE0791F0C1305B
:100AC000DC47A1F01BC0CB358CE7D807A9F0CC35AB
:100AD000ECE7DE0771F0CA35DC4781F40E942C0F89
:100AE0000DC00E9418050EC00E94340F0E941E0502
:100AF00009C00E94220F02C00E94300FC8010E944C
:100B00009F0401C080E0DF91CF911F910F91089564
:100B10000E949A050E94D21E0895089581E00895CA
:100B20000895CF93C82F0E948D058C2F0E94FC033F
:100B3000CF9108950E94131D0E9491050895CF93AF
:100B40000E94131DC82F8091B401C81779F0C0937B
:100B5000B4010E941F1F6093B5017093B60180938A
:100B6000B7019093B8018C2F0E949105CF91089501
:100B7000ADE0B0E0EEEBF5E00C94382648875987FD
:100B80006A877B878C879D8791110E942E0ECE01EC
:100B9000019627E0FC0111922A95E9F726E0FE0173
:100BA0003896DC0101900D922A95E1F72D812111F3
:100BB0000AC029813A814B815C816D817E818F8160
:100BC0000E94780D04C00E94E9048111F2CF2D9695
:100BD000E2E00C945426FC012481213021F4808130
:100BE00091810E94FA0A0895662319F00E944B1A17
:100BF00002C00E94BC1A0E94331B0895CF93882321
:100C000009F488C0C82F8238A1F40E94201D81FDFC
:100C100081C089E30E943B1E0E94B50E2FEF87EE34
:100C200093E0215080409040E1F700C0000089E34C
:100C300015C08338C1F40E94201D80FD6BC083E580
:100C40000E943B1E0E94B50E2FEF81EE94E02150D2
:100C500080409040E1F700C0000083E50E94521EF2
:100C60000E94B50E57C08438A1F40E94201D82FD59
:100C700051C087E40E943B1E0E94B50E2FEF81EE0B
:100C800094E0215080409040E1F700C0000087E4EC
:100C9000E5CF8CEF8C0F813A70F48C2F0E94B21D3F
:100CA000882329F08C2F0E94521E0E94B50E8C2F93
:100CB0000E943B1ED5CF80E28C0F883048F4C7706D
:100CC00081E001C0880FCA95EAF70E94110EC8CFD3
:100CD000EBE5EC0FE33040F4F0E0E45AFE4F8081A6
:100CE00090E00E944A1D16C0E8E5EC0FEB3150F48D
:100CF000F0E0EE0FFF1FEA5DFE4F808191810E94C0
:100D00006F1D08C083E38C0F833120F461E08C2FCA
:100D10000E94F405CF910895882309F456C08238C3
:100D200059F40E94201D81FF50C089E30E943B1EA0
:100D30000E94B50E89E30CC0833879F40E94201D0F
:100D400080FF43C083E50E943B1E0E94B50E83E5F1
:100D50000E94521E0E94B50E0895843859F40E94D4
:100D6000201D82FF32C087E40E943B1E0E94B50E08
:100D700087E4EECF9CEF980F913A50F390E2980FF2
:100D8000983050F4877091E001C0990F8A95EAF786
:100D9000892F0E94170EDECF9BE5980F933028F421
:100DA00080E090E00E944A1D089598E5980F9B31DD
:100DB00028F480E090E00E946F1D089593E3980F5F
:100DC000933118F460E00E94F40508951F93CF93C7
:100DD000DF93182FEB010E94FE05209741F08FE969
:100DE0009FE00197F1F700C000002197F6CF812F17
:100DF0000E948C06DF91CF911F910895893319F0DD
:100E000060E070E002C060E570E00E94E6060895D0
:100E1000882321F00E94110E0E94B50E08958823A8
:100E200021F00E94170E0E94B50E0895A0E0B0E0D8
:100E3000ECE1F7E00C9432267C01162FC72FFC0161
:100E4000D581068102950F700E94070E8823F9F064
:100E5000DD23E9F08C2F807F803461F080E2810F08
:100E60008830A8F08C2F807E803221F4123078F008
:100E7000002369F08091D70282FF09C082E00E94BE
:100E8000F60E0E94070E91E0D82ED92601C0D12C73
:100E9000CC2EC2948FE0C8228C2D90E08C3091052E
:100EA00008F09CC1FC01EA5AFF4F0C9422268C2FBB
:100EB000807FCF70882311F0C295C07FDD2399F029
:100EC000CC2309F477C180E2810F883010F0111132
:100ED00004C08C2F0E94110E03C08C2F0E94210E83
:100EE0000E94B50E67C1812F0E948C06CC2309F4A5
:100EF00075C180E2810F883038F1112329F18C2FE0
:100F00000E94270E24C08C2F807FCF70803211F07A
:100F1000C295C07F112319F0113099F13CC0809126
:100F2000D70282FD17C0DD2349F0CC2329F08C2F96
:100F30000E94110E0E94B50E80E03DC180E00E942B
:100F40008C06CC2309F44AC18C2F0E94170E0E94F4
:100F5000B50E44C1DD2349F0002309F1013009F049
:100F60003DC18C2F0E94380E39C1011137C18C2F21
:100F70000E940F078C2F0E94440E8C2F0E94C90ED6
:100F80002DC1DD2321F0063008F028C108C005304E
:100F900008F024C115C0DD2331F001110BC18C2FE5
:100FA0000E9408071BC1002359F0193309F013C12F
:100FB000FFEF27EE83E0F15020408040E1F709C1C8
:100FC0008C2F0E940F070AC18C2F869586958370FF
:100FD00019F0813061F002C1DD2321F0812F9C2FB7
:100FE000937002C080E090E00E944A1DFFC0DD23A4
:100FF00021F0812F9C2F937002C080E090E00E942E
:101000006F1DF4C06D2F812F0E94F405EFC08C2F4F
:101010008370B1F5D111E6C0412F429546954770D6
:10102000440F440F812F8F7090E09C01042E02C06A
:10103000220F331F0A94E2F714FF0AC08FE090E0FA
:1010400002C0880F991F4A95E2F78095909502C0DB
:1010500080E090E0C695C695C370822B932BC2307A
:1010600049F058F4C13019F00E94BB09BBC00E947E
:10107000B209B8C00E94C409B5C00E94AF09B2C08D
:10108000DD2319F08C2F817001C08695882309F427
:10109000A9C0412F429546954770440F440F812FB8
:1010A0008F7090E09C01042E02C0220F331F0A941F
:1010B000E2F714FF0AC08FE090E002C0880F991F8A
:1010C0004A95E2F78095909502C080E090E0C69541
:1010D000C695C370822B932BC23049F058F4C130AF
:1010E00019F00E943F0A7EC00E94360A7BC00E940F
:1010F000480A78C00E94D00975C0CF70DD2339F04E
:101100008C2F0E94040A812F0E9408076BC0812F38
:101110000E940F078C2F0E94140A64C0123F21F115
:1011200028F4103F41F0113FC1F040C0133F19F1C6
:10113000143F79F03BC0DD2341F0053008F04EC08C
:101140008C2F8F710E94260A49C0063008F046C0D5
:10115000F7CF8091D70282FD18C0DD2339F08C2FA4
:101160008F710E94040A3AC0DD23C9F38C2F8F715E
:101170000E94140A33C0DD2329F08C2F8F710E9446
:10118000F8092CC00E94D70929C0DD2331F063E0A3
:101190008C2F8F710E94D80E21C081E00E94F60E24
:1011A0000230E0F082E00E94F60E18C0DD2331F03C
:1011B0000023A9F2812F0E94FE0510C00023B1F286
:1011C000193349F49FEFE7EEF3E09150E040F0402F
:1011D000E1F700C00000812F0E948C0688EF8C0D83
:1011E000843020F40E94131D0E949105DD2089F0B7
:1011F0000E94030E80FD0DC0F70115820E94FD0DB7
:101200000E94040AC7010E9426090E94FD0D0E9447
:10121000140ACDB7DEB7E8E00C944E260F931F9367
:10122000CF93DF93EC01688179818D810E94050B5A
:101230008C010E94510A0E94A009B801CE010E94AF
:101240001607DF91CF911F910F910895CF93DF93F0
:10125000FC0124812223D1F0EC010E94240581119C
:101260000FC00E94070E882389F08D81882371F0BA
:101270008091D70282FF0AC082E00E94F60E06C06B
:10128000CE010E940E09CE010E94F504DF91CF919C
:10129000089580E090E00E944A1D80E090E00E9466
:1012A0006F1D0E942E0E0E94B50E0E94521B0E94BE
:1012B000331B08950E94691E0E94490908950E94E7
:1012C0001E0E0E945A09089592959F70963079F0EB
:1012D00010F4925001C09A50923068F4803F69F047
:1012E00018F4883E40F409C0843F29F406C0883EC3
:1012F00020F0813F11F080E0089581E00895FC0125
:101300002481222339F0808191810E94FA0A0E946F
:101310006409089580E00895A6E0B0E0E2E9F9E00C
:101320000C9438262696E2E00C945426A7E0B0E010
:10133000ECE9F9E00C9438262796E2E00C94542668
:10134000089508950E94A10908950E94A209089590
:101350000E94A5099093ED018093EC0108950E94ED
:10136000A80908952091EC013091ED01822B932B77
:101370000E94A80908952091EC013091ED0182238B
:1013800093230E94A80908952091EC013091ED016A
:10139000822793270E94A80908950E94A109089511
:1013A0000E94CD099093EB018093EA01089580E0BB
:1013B00090E00E94D0090895009721F481E066230F
:1013C00071F00CC021E030E002C0220F331F6A959B
:1013D000E2F72823392381E0232B09F480E00895E4
:1013E000682F8091EA019091EB010E94DC09089539
:1013F00021E030E0A90102C0440F551F8A95E2F7B1
:10140000CA010E94D009089521E030E002C0220FF5
:10141000331F8A95E2F78091EA019091EB01822BCC
:10142000932B0E94D009089521E030E002C0220FE2
:10143000331F8A95E2F7209530958091EA019091CB
:10144000EB01822393230E94D009089521E030E02C
:1014500002C0220F331F8A95E2F78091EA01909132
:10146000EB01822793270E94D00908952091EA0179
:101470003091EB01822B932B0E94D009089520918B
:10148000EA013091EB01822393230E94D009089551
:101490002091EA013091EB01822793270E94D00925
:1014A00008950895962F9770A1E001C0AA0F9A950C
:1014B000EAF793E0769567959A95E1F7660F771FBF
:1014C000660F771FFA01E60FF71F40E050E0682F24
:1014D00070E090819B01042E02C0369527950A94F6
:1014E000E2F72170219529272A23292721934F5F8D
:1014F0005F4F4430510569F70895FB01782F7770ED
:1015000023E0969587952A95E1F7880F991F880F14
:10151000991FE80FF91F40E050E080E0219130E092
:10152000072E02C0369527950A94E2F721703327DB
:10153000042E01C0220F0A94EAF7822B4F5F5F4FFF
:101540004430510559F70895282F963070F48031B2
:1015500060F4862F622F70E020E1929F600D711D74
:1015600011244AEB51E00E94520A0895963070F41B
:10157000803160F4292F90E06AEB71E030E1239F25
:10158000800D911D11240E947D0A089580E0089528
:10159000A0E0B0E0EEECFAE00C9431267C01009182
:1015A000EA011091EB018091EC019091ED01082B83
:1015B000192BCFE0D0E0CC24C394D12CC6010C2E43
:1015C00002C0880F991F0A94E2F780239123892B88
:1015D00021F4219798F7B12C07C0BC2EB7018C2FAE
:1015E0000E9425120197A9F38B2DCDB7DEB7E9E054
:1015F0000C944D26CF93DF93EC010E94C80ABE01E4
:101600000E942512DF91CF9108951F93CF93DF930E
:10161000EB019091B901992321F0CB010E94FA0AC4
:1016200013C0882349F0CB010E94C80A182F682FE5
:10163000CE010E94A40A04C0CB010E94B60A182F52
:10164000BE01812F0E942512DF91CF911F91089535
:101650001F93CF93DF93C091EE0117E08091EF01CC
:10166000C817A1F0D0E01C9FF0011D9FF00D1124C0
:10167000E051FE4F20813181428153816481758127
:1016800086810E9496092196C770E8CFDF91CF919D
:101690001F910895209128023091290240912A0239
:1016A00050912B0260912C0270912D0280912E029C
:1016B0000E9496090895CF93DF9380912E02829520
:1016C0008F7009F04EC080912D02882309F449C023
:1016D0008091EE014091EF01509129026091280222
:1016E000C0912A02D0912B0277E08417D1F190E0CB
:1016F000789FF001799FF00D1124DF01A051BE4FBA
:1017000014962C911497222349F111962C9111973C
:10171000251324C02C91261321C015962C911597C2
:1017200021111CC012962D913C9113972C1B3D0B3F
:10173000283C310598F480912E028F70806180934F
:101740002E02EA50FE4F80818F708061808388E294
:1017500092E00E9426090E94280B03C00196877020
:10176000C4CFDF91CF9108952091EE019091EF01C8
:1017700057E02917A9F030E0529FF001539FF00D78
:101780001124E051FE4F7181761306C070817813E9
:1017900003C07581741306C02F5F3F4F2770E9CFD8
:1017A00080E0089581E00895A4E1B0E0EAEDFBE077
:1017B0000C942E268C0186E0F801DE011F96019024
:1017C0000D928A95E1F7F8018481E58098E2A92ECF
:1017D00092E0B92E90912C02911118C0882309F43F
:1017E00080C1EE20D9F1C8010E947F09F82E88231C
:1017F000A9F187E0F801D50101900D928A95E1F7F2
:10180000C5010E94EB050E945B0B98C0F801C080E7
:10181000D18082809380F0902D0220912A02309115
:101820002B02A401421B530BFF2009F406C1483CC4
:10183000510508F0AFC0882309F455C180912E02EC
:10184000282F207F90912902222361F09D1509F411
:1018500062C0C8010E947F09811173C0C8010E9443
:1018600026093FC19D1115C0909128029C1111C0FD
:10187000E1100FC08F70806180932E020E944A0B8E
:1018800088E292E00E94260980912E02F801868368
:1018900026C1E1103AC040E06D2D8C2D0E94B40BA2
:1018A00040E06D2D8C2D0E94B40BE82E811117C1E4
:1018B000CF86D88A8F8598890E94FA0A292F229587
:1018C0002F70243020F49F70223028F009C02A5055
:1018D000223080F014C0992349F0811107C013C051
:1018E000992321F0F8019681907F69F0805E88301D
:1018F00030F409C0803F38F0815F833020F0C801A8
:101900000E942609EF2CFE2CEEC080912E028160F1
:1019100080932E02E4C0909128029C119ACFE1108E
:1019200098CFF8018683C8010E94260987E0F80154
:10193000A8E2B2E001900D928A95E1F70E944A0B6D
:10194000D2C0EE2009F48ACF20912E02822F8295F8
:101950008F7090E002978CF080912802909129027C
:10196000998788879B868A8680912C028C871D8622
:101970002E87CE0108960E94260987E0F801A8E28A
:10198000B2E001900D928A95E1F70E945B0B0E94F4
:101990004A0BA7C090912E02292F207FA1F4682D19
:1019A0009A8A898AA6017A899E2D0E948C0988E2EA
:1019B00092E00E94260987E0F50111928A95E9F7E5
:1019C0000E944A0B8CC0882309F48DC080912902A3
:1019D0008D1111C0809128028C110DC0E1100BC037
:1019E000F8019683C8010E94260987E0F50111924B
:1019F0008A95E9F778C0C8010E947F09882309F415
:101A00002DCFEE2009F42ACF20912E02822F82952D
:101A10008F7090E002970CF4B0CF809128029091E3
:101A200029029A8389839C828B8280912C028D83E8
:101A30001E822F83CE0101969ECF483C510508F0AF
:101A400040C0882309F44DC0FE2CEE2009F406CFD7
:101A5000809129028D1127C0809128028C1123C00A
:101A600090912E0290FD16C0892F82958F70282F9D
:101A700030E02115310571F0F80196832F303105E2
:101A800009F451CF8F5F982F9295907F86818F7048
:101A9000892B48CF87E0F801A8E2B2E001900D92CF
:101AA0008A95E1F720C0C8010E947F09811165CFA6
:101AB00080912E02816080932E02C8010E94260927
:101AC00012C0682D9A8A898AA6017A899E2D0E9461
:101AD0008C0987E0F50111928A95E9F72FCFF12C57
:101AE00002C0FF24F3948F2D6496ECE00C944A26F8
:101AF000AEE0B0E0EEE7FDE00C94372628873987AA
:101B00004A875B876C877D878E87CE0108960E9407
:101B1000D40B882361F06C856623A9F1288539856B
:101B20004A855B857D858E850E9496092CC087E05D
:101B3000FE013896DE01119601900D928A95E1F72B
:101B40006C85662301F12091EF0130E0C901019617
:101B5000877099274091EE0150E084179507E1F1D5
:101B60006D8397E0929FD001939FB00D1124A051F7
:101B7000BE4FFE01319601900D929A95E1F7809348
:101B8000EF010E94280B17E08091EE019091EF0188
:101B9000891779F1189FC001112480519E4F0E942E
:101BA000D40B882331F1E091EE011E9FF001112446
:101BB000E051FE4F208131814281538164817581E2
:101BC00086810E9496098091EE0190E001968770CF
:101BD00099278093EE01D8CF0E945F091092EF0100
:101BE0001092EE01E8E2F2E087E0DF011D928A95B3
:101BF000E9F72E96E3E00C945326809157028695E0
:101C000086958695089580915702877008959091E2
:101C10005702977081E009F480E008958091830273
:101C2000089590918302892B809383020895809573
:101C300090918302892380938302089510928302F6
:101C4000089590918202892B809382020895809555
:101C500090918202892380938202089510928202D9
:101C6000089508950E94310E08950E94320E08953D
:101C700090915902292F2823821729F0982B9093AD
:101C800059020E94350E089590915902292F282358
:101C900031F080958923809359020E94350E089572
:101CA00080915902882329F01092590280E00E9405
:101CB000350E0895CF93C091830280918202C82B84
:101CC00080915902882331F0C82B0E94941D811104
:101CD0000E94500E8C2FCF910895CF93DF93C09127
:101CE0000201D09103010E945A0E8883C091020123
:101CF000D091030148E050E06FE472E0CE010E9411
:101D00009626892B59F088E0FE01AFE4B2E00190FD
:101D10000D928A95E1F7CE010E94231DDF91CF91AC
:101D20000895CF93DF93C0910001D09101010E94EB
:101D30005A0E8983C0910001D091010140E250E028
:101D40006FE272E0CE010E949626892B59F080E264
:101D5000FE01AFE2B2E001900D928A95E1F7CE016B
:101D60000E942E1DDF91CF91089580911B01882341
:101D700039F08091D60287FF03C00E94910E08952A
:101D80000E946D0E08950E94310E08950E94C30EA8
:101D9000089590915802292F282331F080958923A6
:101DA000809358020E94C60E08950E94310E089535
:101DB0009091D70292FF11C098E0899F9001112461
:101DC000262B209357020E94040A80915702869581
:101DD000869586950E94D50E08950E94040A08955E
:101DE0001092570280E00E94D50E089590915702FC
:101DF0008095892380935702282F277069F49817BC
:101E000059F09091D70292FF07C0869586958695E6
:101E10000E94140A0E94F00E08959091D70292FB3E
:101E2000222720F9281769F080FB92F99093D702B6
:101E30008091D6029091D7020E94550F82E00E94B5
:101E4000F60E08958091D70282FB882780F991E0F1
:101E500089270E940D0F089581E00E940D0F0895BB
:101E600080E00E940D0F08956FEF7FEF80E090E01B
:101E70000E94EE26089580E090E00E94BA2621E0BC
:101E8000853E9E4F09F020E0822F089582E090E089
:101E90000E94AC26089583E090E00E94AC2608954D
:101EA00084E090E00E94BA260895BC0184E090E0AE
:101EB0000E94EE260895AB01BC018FE090E00E94E5
:101EC000E2260895AB01BC0183E190E00E94E22686
:101ED000089560E070E0CB010E94620F089560E019
:101EE00070E0CB010E945B0F0E94690F0895A8E08B
:101EF000B0E0EDE7FFE00C94382665EE7EEF80E081
:101F000090E00E94EE2660E082E090E00E94D02601
:101F100081E090E09093ED018093EC0161E083E03B
:101F200090E00E94D02660E074E184E090E00E949E
:101F3000EE2660E086E090E00E94D02660E087E038
:101F400090E00E94D02640E050E0BA0188E090E0A6
:101F50000E94E22660E083E290E00E94D02660E0EA
:101F60008CE090E00E94D02660E08DE090E00E943E
:101F7000D02619821A821B821C821D821E821F8219
:101F8000188648E050E067E170E0CE0101960E94BB
:101F9000C02640E050E0BA018FE190E00E94E226C6
:101FA0000E946F0F2896E2E00C9454260E94770F4F
:101FB0000895682F8EE090E00E94D0260895A6E054
:101FC000B0E0E5EEFFE00C9436260E94131F8C0172
:101FD00080918402909185020817190781F0198277
:101FE0001A820E94131F682F49815A81792F80E03D
:101FF00090E00E94B8051093850200938402269613
:10200000E4E00C9452260E941F1F60939A02709382
:102010009B0280939C0290939D0260939602709322
:102020009702809398029093990208950E941F1F2F
:1020300060939A0270939B0280939C0290939D02FE
:10204000609392027093930280939402909395020E
:10205000089581E0089581E008950E942B1008956D
:1020600008950E94301008950E94301008950E9433
:10207000341008950E94301008950E943A10089577
:102080000E943010089585E193E10E94AA130E94F6
:1020900040100E943D1008950E9431100E9430109F
:1020A00008950E943B0F811102C00E94D60F0E942A
:1020B000460F80939E020E94500F9093D702809308
:1020C000D6020E94AE180E944B0F90E00E94AF090A
:1020D0008091EA019091EB010E94CD0908950E9440
:1020E0000A1F0E94FC160E942E130E9451100E948B
:1020F00090050E945B160E9437100895A6E0B0E09C
:10210000E4E8F0E10C942C260E942910811103C010
:102110000E94DF0F62C00E94421326E8E22E22E0F6
:10212000F22E5701D12CF501019111915F018D2DF6
:102130000E94171380279127D394F6E0DF1619F039
:10214000892B89F302C0892B19F380919E0281FDAE
:102150000E9420130E942D10782E10E066246394B4
:10216000812F0E9417134C01F701A080B180A8268F
:10217000B926A114B10449F100E0CC24C394D12CB8
:10218000C5018C219D21892BC1F07720B1F00983F5
:102190001A830E94131F9C838B836D8221E0C401EC
:1021A0008C219D21892B09F420E049815A816B8182
:1021B0007C818D81922F0E94B8050F5FCC0CDD1CB5
:1021C0000031F1F6F701918280821F5FF2E0EF0E9D
:1021D000F11C163029F60E9403100E949B160E94E3
:1021E000641781110E9416100E94741B0E949F05A3
:1021F0002696EEE00C9448261F93CF93DF930E941F
:102200002A12EC01C11580E5D807E8F5C11590E464
:10221000D90708F0A8C0C03ED10530F5CD3CD105A6
:1022200008F094C0C83AD10578F4C53AD10508F051
:1022300083C0C130D10509F47CC008F4F2C0C430B9
:10224000D10508F0F1C0EDC0C33CD10508F0E9C0EC
:10225000C85AD0E0CC0FDD1FC15ADE4F0990D8819B
:10226000C02DCE019464E1C0C11580E2D80708F00A
:10227000CBC0C11591E0D90708F06BC0C83ED105AD
:1022800008F4D2C0CEC0C03682E5D80728F5C034E5
:1022900092E5D90708F079C0C03282E5D80708F086
:1022A0006CC0C11592E5D90708F481C04C2F469542
:1022B000469580E2489FA0011124C37021E030E0E0
:1022C000C90102C0880F991FCA95E2F7EA01C82B1D
:1022D000D92BCE019D68A9C0C03A82E5D807B8F4D1
:1022E0008C2F8F71C03892E5D90708F07BC0869596
:1022F000869590E2899F90011124C37081E090E05F
:1023000002C0880F991FCA95E2F79A6868C0C03C5E
:1023100082E5D80708F46DC0C03E92E5D90708F001
:1023200080C0CF71DD27DC2FCC27CE01806F906A73
:102330007CC081E090E079C0C55AD0E0CB56DE4F3A
:102340008881C82FD0E0CE0190646FC0CE01906527
:102350006CC08D2F0E94C612182FCE0199270E94A3
:102360002A121F715CC0CE0199270E942A12CC2725
:10237000DF70D06A8C2B9D2B58C0CF71D0E0DC2F42
:10238000CC27CE01816F906A50C08C2F8F718695BB
:10239000869590E2899F90011124C37081E090E0BE
:1023A00002C0880F991FCA95E2F79C6818C08C2F4D
:1023B0008F710E94C61295E0D695C7959A95E1F760
:1023C000CF70D0E0DC2FCC27282F30E084FF05C071
:1023D00084E0220F331F8A95E1F7D069CE01822B6A
:1023E000932B23C090E0D82FCC27CE01846F906A26
:1023F0001CC08C2F8F710E94C6128F7190E0D82F55
:10240000CC27CE01906211C08D2F8F710E94C61211
:10241000182FCE0199270E942A121F719062912BCA
:1024200004C080E090E001C0CE01DF91CF911F9108
:102430000895763038F4603128F4462F672F0E94D3
:102440009C04089580E090E008950E9419120E9473
:10245000FC1008958238910569F1B0F4813391053B
:1024600009F475C048F48932910509F467C08A32CD
:10247000910509F471C008958533910509F459C097
:1024800089339105B9F00895833E910589F138F4B7
:10249000803E9105D1F0823E910529F10895863E56
:1024A0009105C9F1873E9105D9F1843E910509F066
:1024B0006CC027C02091D60220FD57C021FD55C019
:1024C0002091D70223FD5BC008958091D60280FD44
:1024D00048C08091D70280FF48C08091D60284FD19
:1024E00046C083EE51C08091D60282FF3CC0F5CF3A
:1024F0008091D60282FD37C08091D70280FD35C021
:10250000ECCF8091D70281FF36C08091D60284FD46
:102510002EC087EE39C08091D60283FF2AC0F5CF46
:102520008091D60283FD25C08091D70281FD23C012
:10253000ECCF8091D60285FD22C01FC08091D602CB
:1025400085FD1BC08091D70283FF19C00AC080910E
:10255000D60286FD16C017C08091D60286FD13C034
:1025600010C089E311C082EE0FC080EE0DC080E084
:102570000BC086EE09C084EE07C085E305C089E282
:1025800003C08AE201C081E390E008959091D602F1
:1025900092FF10C041E0282F2471243009F040E060
:1025A00031E0282F2871283009F030E0431711F06E
:1025B0002CE0822793FF10C041E0282F24712431A2
:1025C00009F040E031E0282F2871283109F030E08F
:1025D000431711F02CE082273091D70230FF10C052
:1025E00051E0282F2171213009F050E041E0282FDF
:1025F0002871283009F040E0541711F029E08227B3
:1026000031FF10C041E0282F2171213109F040E055
:1026100031E0282F2871283109F030E0431711F0FC
:1026200029E0822794FD877E089580E00895E82FB1
:10263000F0E0EE0FFF1FEC51FD4F80819181089576
:10264000089508950E94211308950E942213089569
:102650000E94211308950E94281308950E94E50204
:10266000E8EDF2E0A4EEB2E0119211921D921D92FB
:1026700082E0E43EF807C1F786E00E9455130E940D
:102680002B130895CF9388ED92E00E943B03282FEF
:1026900046E064EE72E088ED92E00E945613C82F87
:1026A0000E9425138C2FCF9108950895EF92FF92E9
:1026B0000F931F93CF93DF937C018B01C42F2223B1
:1026C00051F081E08093A1020E94131F9093A00219
:1026D00080939F0204C08091A102811102C080E01A
:1026E0001CC080919F029091A0020E942B1F0A970C
:1026F000B0F3D0E0CC0FDD1FAE01B701C8010E94DE
:102700009626892B39F0AE01B701C8010E94A32695
:1027100081E001C080E01092A102CDB7DEB7E6E013
:102720000C9450260E947E1008950E94D51E0E948F
:10273000DD200E9443100E94F7200E946F100E942B
:1027400004210E9409210E9492130E940A210E94E2
:102750004C10F7CF9093B3018093B2010895EF929C
:10276000FF920F931F93CF93DF938B01682F11116B
:102770000AC0442329F0E82FF0E0EC52FD4F6491A9
:10278000762F862F75C0212F30E0E82FF0E044230C
:1027900021F0EC52FD4FE491F0E046E0049FC001CF
:1027A0001124CFEFD0E0BE010E94FA254BEA460388
:1027B000C001479F900D1124800F911D800F911D26
:1027C000982F990F890FAE01421B530B4E9FD001DA
:1027D0004F9FB00D5E9FB00D11249B2F189FA0013D
:1027E0001124452F55278E01041B150B0E9FA001A8
:1027F0000F9F500D1E9F500D11247E01E81AF10805
:10280000E29E8001E39E100DF29E100D1124212FF7
:102810003327C21BD30BCE9F9001CF9F300DDE9F7D
:10282000300D112462307105A9F048F4611571056D
:1028300069F061307105C9F48B2F752F0DC06430BC
:10284000710581F058F06630710579F47E2F8B2F79
:10285000932F0DC0832F7B2F9E2F09C08E2F7B2F90
:10286000952F05C08E2F732F02C07E2F852F692FC5
:10287000CDB7DEB7E6E00C94502641E00E94AF13DE
:1028800008950E943D140895CF93DF93762FE901B8
:10289000682F842F0E944114798368838A83DF9193
:1028A000CF9108958091F002982F9695969591304A
:1028B00021F0837084608093F0020895A0E0B0E07E
:1028C000E4E6F4E10C94322688E090E00E94B4261D
:1028D0006B017C0183E290E00E94AC26282F30E05F
:1028E00040E050E060E070E080E090E000E20E94B4
:1028F0005F26B22FA32FF42FE52FD62FC72F9701D6
:102900008601BC29A12BF22B5E2F532B2B2F3A2FA4
:102910004F2F6D2F7C2FCDB7DEB7E8E00C944E26FD
:10292000A0E0B0E0E6E9F4E10C942E2649015A015A
:102930006B017C010E9452148401A4016A2D7B2D3D
:1029400088E090E00E94E22694014A2D5B2DB601BA
:10295000C70100E20E947A26622F83E290E00E9483
:10296000D026CDB7DEB7ECE00C944A26E0EFF2E0DB
:1029700025E0208311828FEF828383831482758107
:1029800030E04FEF5FEF60E0868197810E94901406
:1029900008959091F402933018F49F5F9093F4029D
:1029A000882391F02091F0023091F1024091F202DF
:1029B0005091F3026091F4027091F5028091F60259
:1029C0009091F7020E949014089581E00E94C9142A
:1029D00008959091F402992319F091509093F40284
:1029E000882391F02091F0023091F1024091F2029F
:1029F0005091F3026091F4027091F5028091F60219
:102A00009091F7020E949014089581E00E94E914C9
:102A10000895609105018091F00280FF0FC08091C0
:102A2000040170E023E0829FC0011124E0919C0129
:102A3000F0919D0188509D4F099508958091060160
:102A400090910701891758F7E82FF0E09F01220FB6
:102A5000331FE20FF31FE850FD4F118210821282E4
:102A60008F5FF0CFE0EFF2E020812E7F2083318175
:102A70004281538164817581868197810E9490147F
:102A80000E94091508959091F00290FF16C0909150
:102A9000060120910701921770F4E92FF0E0DF01A1
:102AA000AA0FBB1FEA0FFB1FE850FD4F8183608315
:102AB00042839F5FF0CF0E9409150895A3E0B0E024
:102AC000E4E6F5E10C9434269091F00290FF31C0D9
:102AD000E22E142F062FF82EE92FE695E695F0E06A
:102AE000E856FE4F80818093A3029C7F943059F476
:102AF0009E012F5F3F4F8F2D0E9444144B816981AF
:102B00008A810E944315F092F1020093F202109321
:102B1000F302EE2071F02091F0026091F4027091C6
:102B2000F5023F2DA8018091F6029091F7020E94D4
:102B300090142396E6E00C945026E0EFF2E09181A9
:102B4000282F4381628188E0890F0E945E150895D5
:102B500081E00E949D150895E0EFF2E09181282F19
:102B60004381628188EF890F0E945E15089581E09C
:102B70000E94AC150895E0EFF2E0628121E1620F5E
:102B800008F46FEF282F438181810E945E1508951C
:102B900081E00E94BB150895E0EFF2E0628121E13F
:102BA000621B08F460E0282F438181810E945E153A
:102BB000089581E00E94CC150895E0EFF2E0438192
:102BC00021E1420F08F44FEF282F628181810E949A
:102BD0005E15089581E00E94DD150895E0EFF2E0B2
:102BE000438121E1421B08F440E0282F628181816A
:102BF0000E945E15089581E00E94EE15089520E080
:102C00000E945E1508952091F00220FF1EC02370DF
:102C100024602093F002662381F03091F10240910C
:102C2000F2025091F3026091F4027091F5028091EA
:102C3000F6029091F7020E9490144091F302609185
:102C4000F2028091F1020E94FF150895682F81E041
:102C50000E940316089581E00E9426160895682FA9
:102C60009091F002969596958FEF890F09F481E087
:102C70000E940316089581E00E942F16089561E0D6
:102C80000E9403160895E0EFF2E080818160808366
:102C9000869586950E943F1608958091F00280FFE8
:102CA00003C00E94321508950E944316089560E003
:102CB0000E94031608958091A20281113AC00E94D9
:102CC0005E142093F0023093F1024093F20250938D
:102CD000F3026093F4027093F5028093F6029093EE
:102CE000F7022C7FA1F40E94B6140E945E14209378
:102CF000F0023093F1024093F2025093F30260939A
:102D0000F4027093F5028093F6029093F7020E940A
:102D10005214E0919A01F0919B0109958091F00283
:102D200080FF04C0869586950E94571681E08093A7
:102D3000A202089508950895882311F0FA0101C0B0
:102D4000FB01099508951F93CF93DF93FB01158134
:102D500011114AC0EC010E940E0E8272FE01E05277
:102D6000F847E531F10520F4EE59FF4F0C94222687
:102D700011E03AC00E944D1637C04BE356E16BE2BA
:102D800076E104C04BE256E16BE376E10E949C16CB
:102D90002BC047EB55E168EA75E1F8CF48EA55E109
:102DA00067EB75E1F3CF49ED55E168EC75E1EECFE6
:102DB00048EC55E169ED75E1E9CF4BEF55E16AEE7D
:102DC00075E1E4CF4AEE55E16BEF75E1DFCF45E009
:102DD00055E165EE74E1DACF45EE54E165E075E169
:102DE000D5CF81E00E943F16812FDF91CF911F91B7
:102DF00008950E942B10089588E0E6EAF2E0DF01D2
:102E00001D928A95E9F70E9407180895FC01238115
:102E100030E02150310923703327428150E081E0B6
:102E20002417350709F080E008950F931F93CF937F
:102E3000DF93EC01162F042F0E940617811113C097
:102E40008A81FE01E80FF11D1F7764816078612B94
:102E500000FB67F964838F5F83708A8388818F5F4B
:102E6000888381E001C080E0DF91CF911F910F91B5
:102E70000895FC01838192819817B1F0DF01A80FBA
:102E8000B11D14968C9187FB992790F98F77DB0100
:102E90008C93DA019C9383818F5F8370838381811C
:102EA0008F5F818381E0089580E00895462F682F29
:102EB00086EA92E00E9415170895AB01BC0186EAEC
:102EC00092E00E9439170895A2E0B0E0EAE6F7E147
:102ED0000C9437268091A502882351F01092A50208
:102EE0008091A8028093A9028091A6028093A702F4
:102EF0000E944A180E94F91610E0882379F0BE015A
:102F00006F5F7F4FCE0102960E945D17882331F0DC
:102F100069818A810E940D0411E0F1CF812F2296F0
:102F2000E3E00C9453268FE891E00197F1F700C09D
:102F30000000089590E0FC01662319F0E255FE4F71
:102F400002C0E055FE4F80818F3FA1F0E82FE2954F
:102F5000EF70F0E031A1282F2F7081E090E001C0E8
:102F6000880F2A95EAF7982F9095932391A392A121
:102F7000892B82A3089590E0FC01662319F0E255A5
:102F8000FE4F02C0E055FE4F20812F3F71F0E22F2F
:102F9000E295EF70F0E080A190E02F7002C095956F
:102FA00087952A95E2F78170089580E00895089545
:102FB000CF93DF93C0E08091AE02C81750F460E079
:102FC0008C2F0E949A1761E08C2F0E949A17CF5F76
:102FD000F2CF0E949317C0E08091AE02C81790F420
:102FE00060E08C2F0E94BB17D82F61E08C2F0E94CD
:102FF000BB17EC2FF0E0EF54FD4F880FD82BD08398
:10300000CF5FEACF0E94D717DF91CF91089582E07A
:103010008093AE020E94D81708951F93CF93DF9339
:10302000E42FEE0F6E2BC82FD0E0DE01AF54BD4F62
:10303000EC912E2F237030E0462F50E024173507F7
:1030400029F1182FEE0FEE0FE62BEC93EF70F0E066
:10305000E256FE4FC155DD4F90818881890F8883EC
:10306000843024F060E0812F0E94561788818D3FC4
:1030700024F461E0812F0E9456178881082E000CED
:10308000990B64E070E00E940E268883DF91CF9157
:103090001F910895CF93DF93C0E08091AE02C817CF
:1030A00080F461E08C2F0E94BB17D82F60E08C2F3A
:1030B0000E94BB174D2F682F8C2F0E940D18CF5FD9
:1030C000ECCFDF91CF910895259A089525B12F7DFA
:1030D00035B130624FB7F894FC01CB01880F991FCE
:1030E000680F791F6E0F7F1FE617F70789F0819130
:1030F00098E035B9000000C087FF25B9880F0000AF
:1031000000C000C000C025B900C09A9591F7ECCF6F
:103110004FBF8FE594E00197F1F700C000000895DC
:103120000E94340F089580E00E9417138170089563
:103130000E9442132FEF89EF90E021508040904091
:10314000E1F700C000000E9442130E9493188823F8
:1031500021F00E9490180E94601F08950E94981804
:103160000895CF93DF9386319C4709F5EB010E94C8
:103170000E0E9D81992371F08A7A91E009F490E016
:103180009093B302811102C089E201C085E30E94DD
:103190003B1E09C08091B302811102C089E201C0C7
:1031A00085E30E94521E0E94B50E80E001C081E0BE
:1031B000DF91CF910895CF93DF93FC01DB0115964A
:1031C0008C91882309F4DDC09F01305723323105EB
:1031D00008F0D8C0EF010E94500F9093D70280935F
:1031E000D602FE01E150F047E232F10520F4E95841
:1031F000FF4F0C9422268091D6028160AAC0809154
:10320000D7028860B2C08091D6028260A2C080914D
:10321000D60220C08091D60288609BC08091D702E0
:103220001EC08091D7028260A0C08091D6028061CA
:1032300090C08091D60280628CC08091D60280645A
:1032400088C00E945F098091D602806882C0809108
:10325000D602886084607DC08091D70282608160E0
:1032600084C08091D6028E7F74C08091D702877F00
:103270007CC08091D6028D7F6CC08091D60220C028
:103280008091D602877F65C08091D7021EC0809151
:10329000D7028D7F6AC08091D6028F7E5AC08091FE
:1032A000D6028F7D56C08091D6028F7B52C00E947D
:1032B0005F098091D6028F774CC08091D602877FBC
:1032C0008B7F47C08091D7028D7F8E7F4EC08091CB
:1032D000D60282FB222720F991E0922790FB82F907
:1032E00090FB83F936C08091D702982F909591700A
:1032F0008E7F892B90FB81F938C08091D60286FBA6
:10330000222720F991E0922790FB86F922C00E94A3
:103310005F098091D60287FB222720F991E092274E
:1033200090FB87F916C081E001C080E00E94D90FB0
:103330001EC08091D60284FB222720F991E09227BB
:1033400090FB84F906C08091D602982F909590FB4F
:1033500080F98093D6020BC08091D70283FB22278D
:1033600020F991E0922790FB83F98093D702809116
:10337000D6029091D7020E94550F0E945F0980E00B
:1033800001C081E0DF91CF910895282F35EB230311
:10339000C001112497FF03C08058910902C08058D2
:1033A0009F4F892F08958091BA0280FF06C06091D7
:1033B0000E0170E0660F771F26C081FF04C0609188
:1033C0000E0184E005C082FF07C060910E0188E015
:1033D000689FB001112417C09091B9029923D1F0D0
:1033E00060910D01961788F720910E0188E0289FC3
:1033F00090011124929FA001939F500D112470E021
:10340000CA010E940E266038710540F461157105ED
:1034100019F406C068E070E0862F08958FE70895DC
:1034200081E008958091BA0280FF08C060910A018E
:1034300070E0759567957595679521C081FF06C009
:1034400060910A0170E07595679519C082FF04C00C
:1034500060910A0170E010C09091B802992399F030
:10346000609109019617A0F780910A01899FC00118
:10347000112470E00E940E266038710540F4611539
:10348000710519F406C061E070E0862F08958FE79A
:10349000089581E008959091BD0291110CC0909122
:1034A000BE02911108C09091C002911104C0909188
:1034B000BF02992331F098E09093B90291E0909384
:1034C000B8028D3C21F40E94D319819504C08E3C32
:1034D00029F40E94D3198093BE0208958F3C21F4F1
:1034E0000E94D319819504C0803D29F40E94D3190C
:1034F0008093BD020895893D19F40E94121A05C0F7
:103500008A3D31F40E94121A81958093BF0208957A
:103510008B3D21F40E94121A819504C08C3D29F440
:103520000E94121A8093C00208959FE2980F98306B
:1035300078F421E030E0A90102C0440F551F9A95AC
:10354000E2F7CA019091BC02892B8093BC020895D6
:103550008D3D21F48091BA0281600BC08E3D21F433
:103560008091BA02826005C08F3D29F48091BA0231
:1035700084608093BA0208958D3C39F49091BE0224
:1035800097FF35C01092BE0259C08E3C29F490912D
:10359000BE021916BCF32BC09091BD028F3C29F4DA
:1035A00097FF25C01092BD0249C0803D19F419163D
:1035B000CCF31DC09091BF02893D29F41916BCF4CB
:1035C0001092BF023BC08A3D19F497FF10C0F8CF9C
:1035D0008B3D39F49091C00297FF09C01092C00250
:1035E0002DC08C3D21F49091C0021916BCF39FE2CE
:1035F000980F983080F421E030E0A90102C0440F18
:10360000551F9A95E2F7CA0180959091BC028923D3
:103610008093BC0213C08D3D21F48091BA028E7F4D
:103620000BC08E3D21F48091BA028D7F05C08F3D85
:1036300029F48091BA028B7F8093BA028091BD02F7
:10364000811106C08091BE02811102C01092B902A0
:103650008091BF02811106C08091C002811102C019
:103660001092B80208950E94131F2091BD022111EB
:1036700004C02091BE02222321F09093B7028093D0
:10368000B6022091BF02211104C02091C002222362
:1036900021F09093B5028093B4028BEB92E00E94EC
:1036A0003C1D0895EBEBF2E086E0DF011D928A9568
:1036B000E9F71092B9021092B8021092BA02089576
:1036C000FC01828181110DC0838181110AC0848136
:1036D000811107C091E08581811101C090E0892F9F
:1036E00001C081E081700895A6E0B0E0EAE7FBE167
:1036F0000C94372686E0EBEBF2E0DE0111960190A8
:103700000D928A95E1F71092BD021092BE021092BE
:10371000BF021092C0028B81811104C08C8188236A
:1037200009F456C08091B6029091B7020E942B1FF7
:10373000AC019091B902992339F020910F0130E04A
:103740002417350758F044C0209110018AE0289FC3
:10375000900111242417350718F03AC09F3F19F043
:103760009F5F9093B9021B81112361F00E94D319CE
:10377000111614F09FEF01C091E0989F902D112435
:103780009093BD021C81112361F00E94D319111680
:1037900014F09FEF01C091E0989F902D1124909319
:1037A000BE028091BD02882399F01091BE021123C0
:1037B00079F00E94C519811101C081E08093BD029A
:1037C000812F0E94C519811101C081E08093BE0242
:1037D0008D81811104C08E81882309F456C08091A7
:1037E000B4029091B5020E942B1FAC019091B802D7
:1037F000992339F020910B0130E02417350758F058
:1038000044C020910C018AE0289F900111242417C4
:10381000350718F03AC09F3F19F09F5F9093B802A8
:103820001D81112361F00E94121A111614F09FEFEE
:1038300001C091E0989F902D11249093BF021E81AA
:10384000112361F00E94121A111614F09FEF01C0AB
:1038500091E0989F902D11249093C0028091BF0217
:10386000882399F01091C002112379F00E94C519A4
:10387000811101C081E08093BF02812F0E94C51990
:10388000811101C081E08093C002BE016F5F7F4F54
:103890008BEB92E00E94831E811105C08BEB92E0BE
:1038A0000E94601B81110E94331B86E0FE0131964D
:1038B000ABEBB2E001900D928A95E1F72696E3E03A
:1038C0000C9453260F931F93CF93DF93C42FD22FC3
:1038D000FC0185818823B1F04093C3020E94131F2D
:1038E0009093C2028093C10280E28C0F883008F06E
:1038F0004DC0C77081E001C0880FCA95EAF70E94E9
:10390000080744C08091C302481330C08091C102AF
:103910009091C2020E942B1F883C910538F510E25D
:103920001D0FCD17B9F080E28C0F883040F4C770BE
:1039300081E001C0880FCA95EAF70E940F0718308E
:1039400010F581E09D2F977001C0880F9A95EAF7D6
:103950000E940807802F0E94FE061830B8F4D77026
:1039600081E001C0880FDA95EAF70AC080E28C0F87
:10397000883060F4C77081E001C0880FCA95EAF70B
:103980000E940F0703C0802F0E94FE06DF91CF9197
:103990001F910F9108950F93FC01E851FC47E73008
:1039A000F10590F5CB01E756FF4F0C94222606E275
:1039B00021EE41EE6AE17CE723C007E225EE45EE09
:1039C0006BE17CE71DC006E221EE40EE68E17CE79A
:1039D00017C007E225EE44EE69E17CE711C006E27C
:1039E00021EE42EE6CE17CE70BC007E225EE46EEED
:1039F0006DE17CE705C008E221E045EE6EE17CE781
:103A00000E94621C80E008C0FB018581882319F0B8
:103A10001092C30201C081E00F9108959093C902F2
:103A20008093C8020895E091C802F091C9023097CE
:103A300029F00190F081E02D0995089580E0089526
:103A40000E94131D0895E091C802F091C9023097B9
:103A500021F00280F381E02D09950895E091C802DC
:103A6000F091C902309739F026E0DC012C930480F4
:103A7000F581E02D09950895E091C802F091C90201
:103A8000309739F022E0DC012C930680F781E02D9D
:103A900009950895A3E0B0E0E0E5FDE10C94382637
:103AA0002091C6023091C70228173907A1F09093E0
:103AB000C7028093C602E091C802F091C902309714
:103AC00051F023E029839B838A830084F185E02DD4
:103AD000CE01019609952396E2E00C945426A3E0CA
:103AE000B0E0E5E7FDE10C9438262091C402309166
:103AF000C50228173907A1F09093C5028093C4022C
:103B0000E091C802F091C902309751F024E0298376
:103B10009B838A830084F185E02DCE01019609956F
:103B20002396E2E00C945426E0910201F091030107
:103B3000329680911B01882359F08091D60287FF2D
:103B400007C0E0910001F091010132969EE101C0B1
:103B500096E080E0915028F021912223D9F38F5FE5
:103B6000F9CF0895882399F190911B01992309F1C8
:103B70009091D60297FF1DC0982F96959695969591
:103B80009E3128F5E0910001F0910101E90FF11D4E
:103B90002281422F50E0877021E030E002C0220FE6
:103BA000331F8A95E2F72423352381E0232B91F4F8
:103BB0000EC02091020130910301F9013296285F75
:103BC0003F4F9191891729F0E217F307D1F780E071
:103BD000089581E008959C01FC0132969FEF80E0FA
:103BE0004191461789F09F3F19F4411101C0982F68
:103BF0008F5F8630A9F79F3F39F0F901E90FF11D7A
:103C000097FDFA956283089508959C012A5F3F4FBE
:103C1000FC014281461301C012820196821793076C
:103C2000B9F70895262F2695269526952E3168F406
:103C3000FC01E20FF11D677021E030E001C0220FAE
:103C40006A95EAF78281282B22830895262F2695EC
:103C5000269526952E3170F4FC01E20FF11D677058
:103C600021E030E001C0220F6A95EAF720958281B9
:103C7000282322830895682F80911B01882359F0FF
:103C80008091D60287FF07C08091000190910101C9
:103C90000E94121E089580910201909103010E94DA
:103CA000EB1D0895682F80911B01882359F08091A6
:103CB000D60287FF07C080910001909101010E9408
:103CC000261E089580910201909103010E94051E15
:103CD000089580911B01882359F08091D60287FFB7
:103CE00007C0E0910001F091010132968EE106C01B
:103CF000E0910201F0910301329686E0DF011D920E
:103D00008A95E9F70895DC01FB0111969C911197C2
:103D10008181981321C012968C911297882319F0F3
:103D20009281891319C013968C911397882319F0E7
:103D30009381891311C015968C911597882319F0DA
:103D40009581891309C014969C91992339F081E0DB
:103D50002481291304C002C081E001C080E0817089
:103D6000089508950E94B11E089583E08093CA02C9
:103D70000E94B21E0895811102C081E001C082E05C
:103D80008093CA020E94B21E08950E94BB1E08952D
:103D900081E08093CA020E94B21E08950E94C81E4C
:103DA000089508950E94D11E089585B7806885BF43
:103DB00085B7806885BF08951F920F920FB60F9246
:103DC00011248F939F93AF93BF938091CB02811166
:103DD00013C08091000490910104A0910204B0915D
:103DE00003044196A11DB11D80930004909301042A
:103DF000A0930204B0930304BF91AF919F918F9160
:103E00000F900FBE0F901F9018950E945F090E949F
:103E10008805089582E084BD93E095BD9AEF97BD33
:103E200080936E0008952FB7F894809100049091CC
:103E30000104A0910204B09103042FBF08952FB78D
:103E4000F8946091000470910104809102049091B3
:103E500003042FBF08959C014FB7F894809100048C
:103E600090910104A0910204B09103044FBF821B02
:103E7000930B089578941F920F920FB60F9211240E
:103E80008F939F93AF93BF9380910004909101040F
:103E9000A0910204B09103040196A11DB11D80936D
:103EA000000490930104A0930204B0930304BF9113
:103EB000AF919F918F910F900FBE0F901F9018950B
:103EC00081E08093E00080E28093D8001092C900E6
:103ED0008FE19EE40197F1F700C0000087E090EBCE
:103EE000DC018093110490931204A0931304B09307
:103EF00014049CE088E10FB6F894A89580936000C4
:103F00000FBE90936000FFCF9CE088E10FB6F8945D
:103F1000A895809360000FBE90936000FFCF8091C2
:103F2000D40208959B01909108049430F1F48F70AD
:103F30008093E9008FEF9091E800815095FD06C0D5
:103F400095ED9A95F1F700008111F5CF8091E80089
:103F500085FF0BC0BA01C90140E050E00E946C210E
:103F60008091E8008E778093E800089543E050E068
:103F7000BC0182E00E94921F089546E050E0BC011F
:103F800082E00E94921F089540E250E0BC0182E06E
:103F90000E94921F0895CF93DF93EC0148E050E018
:103FA000BC0181E00E94921F88E0FE01ACECB2E00F
:103FB00001900D928A95E1F7DF91CF91089580915C
:103FC0000704811109C00E94F7220E9454238091A6
:103FD000E20084608093E20008951092070408953F
:103FE0000E94CE1E08956091040481E0611101C019
:103FF00080E00E94B51E08950E94051F909108045C
:1040000081E0943009F080E0609104040E94BB1EBE
:10401000089542E061EC81E00E94702242E261EC8E
:1040200082E00E9470229091080481E0943009F0AF
:1040300080E0609104040E94C51E089580910A04E6
:10404000833009F461C030F4813071F0823009F4BA
:104050009BC008958A3009F487C08B3009F46CC086
:10406000893009F0A9C020C080910904813A09F083
:10407000A3C08091E800877F8093E80080910D04C1
:1040800090910E04892B21F468E08CEC92E003C03F
:1040900060E080E090E070E00E94B1218091E80053
:1040A0008B778093E800089580910904813209F0AC
:1040B00083C080910D0490910E04029708F07CC09B
:1040C0008091E800877F8093E8008091E80082FD7E
:1040D00005C0809108048111F8CF6EC02091F300D3
:1040E0008091F20090E0922B029731F48091F100E0
:1040F000813011F0863021F48091F1008093D40258
:104100008091E8008B7754C080910904813A09F0CE
:1041100053C080910D0490910E04892B09F04CC07E
:104120008091E800877F8093E8008091E80080FF1D
:10413000FCCF80911B0137C0809109048132E1F5E9
:1041400080910D0490910E04892BB1F58091E800C7
:10415000877F8093E8000E94A52280910B048093C2
:104160001B010E945F09089580910904813221F5A5
:104170008091E800877F8093E8000E94A5228091CB
:104180000C048093D502089580910904813AA1F42A
:104190008091E800877F8093E8008091E80080FFAD
:1041A000FCCF8091D5028093F1008091E8008E775A
:1041B0008093E8000E94A522089584B7877F84BF7A
:1041C0000FB6F894A8958091600088618093600094
:1041D000109260000FBE90E080E80FB6F8948093D4
:1041E0006100909361000FBE0E94C81E08950E9456
:1041F000F7220E945423E2EEF0E080818460808305
:1042000078940E94DF25089581E191E00E940E1DBF
:104210000895089508959A0140910F045091100453
:104220000E9413210895492F552743305105C9F0A5
:1042300060F44130510581F04230510509F044C02D
:104240008BE390E04EE054E043C041325105E1F091
:104250004232510549F138C082E190E049E454E02E
:1042600037C099278130910549F028F0029761F510
:10427000E4EDF3E005C0EAE0F4E002C0EAEFF3E0C9
:10428000849190E0AF0124C06115710541F0613067
:104290007105D1F489E090E049E354E019C089E068
:1042A00090E040E254E014C06115710541F06130C6
:1042B000710551F486EB90E04BE554E009C084E4CD
:1042C00090E041E155E004C080E090E040E050E043
:1042D000F901518340830895A0E0B0E0E2E7F1E204
:1042E0000C943226EC018B017A010E94C4228111C8
:1042F00033C0E114F10439F0F70180819181081B8A
:10430000190BC80FD91FC12CD12C0115110519F19A
:104310008091E80085FD16C08091E8008E7780933B
:10432000E800E114F10449F0F70180819181C80EA1
:10433000D91ED182C08285E00FC00E94C42288238A
:1043400021F30AC089918093F10001501109FFEF18
:10435000CF1ADF0ADACF80E0CDB7DEB7E8E00C9401
:104360004E2620910F04309110042617370748F08D
:104370006115710539F42091E8002E772093E8004B
:1043800001C0B901FC0120E06115710579F180914E
:1043900008048823F1F18530F1F18091E80083FD74
:1043A0003CC08091E80082FD2EC08091E80080FF33
:1043B000EBCF2091F3008091F20090E0922B6115F9
:1043C000710551F08830910538F421912093F10066
:1043D000615071090196F3CF21E0089709F020E0C0
:1043E0008091E8008E778093E800CECF2111CFCF67
:1043F0000AC080910804882361F0853061F08091C3
:10440000E80083FD0AC08091E80082FFF2CF80E0DF
:10441000089582E0089583E0089581E00895209151
:104420000F04309110042617370748F06115710505
:1044300039F42091E8002E772093E80001C0B901FB
:10444000FC0120E06115710591F180910804882339
:1044500009F440C0853009F43FC08091E80083FD35
:104460003DC08091E80082FD2FC08091E80080FF70
:10447000E9CF2091F3008091F20090E0922B61153A
:10448000710559F08830910540F424912093F10092
:104490003196615071090196F2CF21E0089709F039
:1044A00020E08091E8008E778093E800CBCF211147
:1044B000CCCF0AC080910804882361F0853061F078
:1044C0008091E80083FD0AC08091E80082FFF2CF6E
:1044D00080E0089582E0089583E0089581E00895E2
:1044E000982F973068F59093E900981739F07091FC
:1044F000EC002091ED005091F00003C0242F762FA6
:1045000050E021FD02C09F5FECCF3091EB003E7F79
:104510003093EB003091ED003D7F3093ED00309112
:10452000EB0031603093EB007093EC002093ED00D2
:104530005093F0002091EE0027FDE5CF80E0089534
:104540008F708093E90081E008958091090487FFCE
:1045500011C08091E80082FD05C08091080481119E
:10456000F8CF11C08091E8008B770BC080910804D0
:10457000882349F08091E80080FFF8CF8091E8001F
:104580008E778093E80008952091E4003091E50053
:1045900095E64091EC00842F817040FF23C080910C
:1045A000E80080FD1DC080910804882399F08530C3
:1045B00099F08091EB0085FD11C04091E40050918D
:1045C000E5002417350729F3915011F09A01E1CF46
:1045D00084E0089582E0089583E0089581E00895DD
:1045E00080E008954091E80042FFDDCF08950E94E9
:1045F00066230E946E23E0EEF0E08081816080837C
:10460000E8EDF0E080818F77808319BCA7EDB0E002
:104610008C918E7F8C9380818F7E80831092070493
:1046200008950F931F93CF93DF930E9466230E94F8
:104630006E23C8EDD0E088818F7788838881806879
:10464000888388818F7D888319BC1092080410921A
:104650000404109206041092050400EE10E0F80124
:1046600080818B7F808388818160888342E060E0E5
:1046700080E00E947022E1EEF0E080818E7F8083F6
:10468000E2EEF0E0808181608083808188608083B9
:10469000F80180818E7F8083888180618883DF91AB
:1046A000CF911F910F910895E8EDF0E080818F7E0A
:1046B0008083E7EDF0E080818160808384E082BFC9
:1046C00081E0809307040E9411230895E8EDF0E053
:1046D00080818E7F80831092E20008951092DA002C
:1046E0001092E10008951F920F920FB60F921124BD
:1046F0002F933F934F935F936F937F938F939F93EA
:10470000AF93BF93EF93FF938091E10082FF0BC0C3
:104710008091E20082FF07C08091E1008B7F80934F
:10472000E1000E94DE258091DA0080FF1FC08091A9
:10473000D80080FF1BC08091DA008E7F8093DA0062
:104740008091D90080FF0DC080E189BD82E189BDE3
:1047500009B400FEFDCF81E0809308040E94DF1FB2
:1047600005C019BC109208040E94ED1F8091E10061
:1047700080FF19C08091E20080FF15C08091E200A7
:104780008E7F8093E2008091E20080618093E2005E
:104790008091D80080628093D80019BC85E0809316
:1047A00008040E94F31F8091E10084FF30C08091D3
:1047B000E20084FF2CC080E189BD82E189BD09B49B
:1047C00000FEFDCF8091D8008F7D8093D80080912E
:1047D000E1008F7E8093E1008091E2008F7E8093E4
:1047E000E2008091E20081608093E2008091040405
:1047F000882311F084E007C08091E30087FD02C0A8
:1048000081E001C083E0809308040E94FC1F809136
:10481000E10083FF29C08091E20083FF25C08091E1
:10482000E100877F8093E10082E08093080410928A
:1048300004048091E1008E7F8093E1008091E2008A
:104840008E7F8093E2008091E20080618093E2009D
:1048500042E060E080E00E9470228091F000886079
:104860008093F0000E94F01FFF91EF91BF91AF91F4
:104870009F918F917F916F915F914F913F912F9178
:104880000F900FBE0F901F9018951F920F920FB6AA
:104890000F9211242F933F934F935F936F937F93C6
:1048A0008F939F93AF93BF93CF93DF93EF93FF9338
:1048B000C091E900CF708091EC00D82FD17080FDBD
:1048C000D0E81092E9008091F000877F8093F0009B
:1048D00078940E9489241092E9008091F000886009
:1048E0008093F000CD2BCF70C093E900FF91EF9142
:1048F000DF91CF91BF91AF919F918F917F916F91F8
:104900005F914F913F912F910F900FBE0F901F908D
:104910001895AAE2B0E0EFE8F4E20C943726E9E05B
:10492000F4E08091F100819324E0E131F207C9F7CE
:104930000E941E208091E80083FF2EC1809109040F
:1049400090910A04492F50E04A30510508F024C1E3
:10495000FA01E056FF4F0C942226803821F082386D
:1049600009F01AC108C080910504909106049923AA
:1049700089F082600FC080910D048F70873008F03D
:104980000BC18093E9008091EB0085FB882780F9BB
:104990001092E9009091E800977F9093E80080934F
:1049A000F1001092F100D1C0282F2D7F09F0F4C042
:1049B000882319F0823061F0EFC080910B048130C0
:1049C00009F0EAC0933009F080E0809306042EC01D
:1049D00080910B0481112AC080910D048F702FEFFC
:1049E000280F263008F0D8C08093E9002091EB0012
:1049F00020FF1CC0933021F48091EB00806214C032
:104A00009091EB0090619093EB0021E030E0A901E0
:104A100002C0440F551F8A95E2F74093EA001092B6
:104A2000EA008091EB0088608093EB001092E9002F
:104A30008091E800877F8093E8000E94A522ACC0A7
:104A40008111AAC010910B041F778091E300807838
:104A5000812B8093E3008091E800877F8093E800BA
:104A60000E94A5228091E80080FFFCCF8091E300A6
:104A700080688093E300111102C082E001C083E0EE
:104A80008093080489C08058823008F085C08091E6
:104A90000B0490910C048C3D53E0950779F583E06D
:104AA0008A838AE289834FB7F894DE01139620E067
:104AB0003EE051E2E32FF0E050935700E49120FFF5
:104AC00003C0E295EF703F5FEF708E2F90E0EA3009
:104AD00010F0C79601C0C0968D939D932F5F24312F
:104AE00049F74FBF8091E800877F8093E8006AE232
:104AF00070E0CE0101960E94B12116C060910D04B4
:104B000070910E04AE014F5F5F4F0E940B21BC01FC
:104B1000892B09F441C09091E800977F9093E800B9
:104B200089819A810E940F228091E8008B7780937F
:104B3000E80032C0803881F58091E800877F80935B
:104B4000E800809104048093F1008091E8008E7762
:104B500072CF811121C080910B0490910C04992790
:104B60000297D4F48091E800877F8093E8008091D9
:104B70000B04809304040E94A522809104048111F7
:104B800006C08091E30087FD02C081E001C084E09F
:104B9000809308040E9409208091E80083FF0AC0E6
:104BA0008091E800877F8093E8008091EB0080622D
:104BB0008093EB00AA96E3E00C9453260895CF93DC
:104BC000809108048823A1F0C091E900CF709091F2
:104BD000EC00892F817090FD80E8C82B1092E900CD
:104BE0008091E80083FD0E948924CF70C093E90082
:104BF000CF910895AA1BBB1B51E107C0AA1FBB1F81
:104C0000A617B70710F0A61BB70B881F991F5A9558
:104C1000A9F780959095BC01CD01089597FB072ECB
:104C200016F4009407D077FD09D00E94FA2507FCFE
:104C300005D03EF4909581959F4F089570956195AC
:104C40007F4F0895EE0FFF1F0590F491E02D09941A
:104C50002F923F924F925F926F927F928F929F928C
:104C6000AF92BF92CF92DF92EF92FF920F931F937A
:104C7000CF93DF93CDB7DEB7CA1BDB0B0FB6F8942B
:104C8000DEBF0FBECDBF09942A88398848885F846B
:104C90006E847D848C849B84AA84B984C884DF80DC
:104CA000EE80FD800C811B81AA81B981CE0FD11DC0
:104CB0000FB6F894DEBF0FBECDBFED0108950F9380
:104CC000083090F0982F872F762F652F542F432F81
:104CD000322F22270850F4CF220F331F441F551FB5
:104CE000661F771F881F991F0A95B2F70F910895C5
:104CF00097FB10F8169400080F93083098F00850AE
:104D0000232F342F452F562F672F782F892F902D43
:104D1000F4CF05949795879577956795579547951F
:104D2000379527950A95AAF70F910895FB01DC01A5
:104D300004C08D910190801921F441505040C8F772
:104D4000881B990B0895FB01DC0102C001900D92B4
:104D500041505040D8F70895F999FECF92BD81BDDA
:104D6000F89A992780B50895A6E1B0E044E050E0B4
:104D70000C94F626A8E1B0E042E050E00C94F62650
:104D8000DC01A40FB51F4150504048F0CB01840F07
:104D9000951F2E910E94D12641505040D0F7089582
:104DA000262FF999FECF92BD81BDF89A019700B4E4
:104DB000021639F01FBA20BD0FB6F894FA9AF99A84
:104DC0000FBE08950396272F0E94D1260E94D02659
:104DD000252F0E94D126242F0C94D1260196272F0F
:104DE0000E94D1260C94D026DC01CB01FC01F9995C
:104DF000FECF06C0F2BDE1BDF89A319600B40D9227
:0C4E000041505040B8F70895F894FFCFDF
:104E0C005A027A020058005858280850011E0A14F9
:104E1C00018F1FCB1FC41FBD1FB61F01669490913D
:104E2C00F4F5F6F73133E200E900EA00B500B6001C
:104E3C00B700CD008301CC008A01920194012102BC
:104E4C00230224022502260227022A02B300B40000
:104E5C006F0070009F01CB019F02A002818283E250
:104E6C0000E900EA00B500B600B700CD008301CC24
:104E7C00008A0192019401210223022402250226B8
:104E8C000227022A02B300B4006F0070009F01CB0E
:104E9C00019F02A00281828300016418661800FF42
:104EAC000100010000FFFF0000010001FF00973628
:024EBC00C632FC
:00000001FF
