:100000000C94ED020C9425030C9425030C94250309
:100010000C9425030C9425030C9425030C942503C0
:100020000C9425030C9425030C947E130C94BA12A3
:100030000C940F1D0C9425030C9425030C9425039C
:100040000C9425030C9425030C9425030C94250390
:100050000C9425030C94CE1C0C9425030C942503BE
:100060000C9425030C9425030C9425030C94250370
:100070000C9425030C9425030C9425030C94250360
:100080000C9425030C9425030C9425030C94250350
:100090000C9425030C9425030C9425030C94250340
:1000A0000C9425030C9425030C942503EB06EB0616
:1000B0001D071D078F07AB0742094209B6079408C1
:1000C000A508A508D310FA109212FA109212421144
:1000D000651192125412671200047F3F1F6432149C
:1000E000643214783C1E1E140A0505010902A101A0
:1000F00085020901A100050919012908150025013A
:100100009508750181020501093009311581257FA6
:1001100095027508810609381581257F95017508B6
:100120008106050C0A38021581257F950175088125
:1001300006C0C005010980A101850319012AB70085
:10014000150126B700950175108100C0050C090145
:10015000A101850419012AA002150126A00295011A
:1001600075108100C005010906A101850605071962
:10017000E029E71500250195087501810205071999
:100180000029EF1500250195F07501810205081978
:10019000012905950575019102950175039101C02D
:1001A00005010906A101050719E029E71500250148
:1001B00095087501810295017508810105071900EF
:1001C00029FF150026FF009506750881000508190E
:1001D000012905950575019102950175039101C0ED
:1001E00009023B00020100A0FA090400000103011A
:1001F00001000921110100012240000705810308C7
:10020000000109040100010300000009211101009F
:100210000122B6000705820320000112010002003E
:10022000000008EDFE240200010102000112034556
:1002300000520047004F003200300032003400000E
:10024000000E037400720061007600690073000004
:1002500000040309042900F3003A003B003C003D80
:10026000003E003F004000410000004200430044C7
:10027000004800460035001E001F0020002100221B
:1002800000230024002500260027002D002E002A30
:10029000004C0084002B0014001A00080015001701
:1002A000001C0018000C00120013002F0030003159
:1002B000004B004D00390004001600070009000A39
:1002C000000B000D000E000F003300340028004525
:1002D000004A004E00E1001D001B00060019000549
:1002E0000011001000360037003800E50000000063
:1002F0000052004F00E0000151E300E200A8002C92
:10030000002C000000E600E7006500E400000000AB
:100310000050005100010001000100010001000136
:1003200000010001000100010000000100010001C6
:1003300000010001000100CE5CCF5CD05CD15CD23A
:100340005CD35CD45CD55CD65C010001000100018B
:1003500000490001000100C45CC65CC85CCA5CCCFA
:100360005C01000100010001000100010001000129
:1003700000010001000100C55CC75CC95CCB5CCD1D
:100380005C01000100010001000100010001000109
:1003900000010001000100C35C0100010001000137
:1003A0000001000100010001000100010000000047
:1003B0000001000100010001000100010001000135
:1003C0000001000000010001000100010000000028
:1003D00000010001002223252628292A2C2D2F3058
:1003E00032333536383A3B3D3E4042434547494A31
:1003F0004C4E5051535557595A5C5E606264666862
:10040000696B6D6F71737577797B7D7F818385876C
:10041000898A8C8E90929496989A9C9E9FA1A3A56F
:10042000A7A8AAACAEAFB1B3B4B6B8B9BBBCBEBF97
:10043000C1C2C3C5C6C7C9CACBCCCDCED0D1D2D21A
:10044000D3D4D5D6D7D7D8D9D9DADADBDBDBDCDC25
:10045000DCDCDCDDDDDDDDDCDCDCDCDCDBDBDBDADD
:10046000DAD9D9D8D7D7D6D5D4D3D2D2D1D0CECD48
:10047000CCCBCAC9C7C6C5C3C2C1BFBEBCBBB9B855
:10048000B6B4B3B1AFAEACAAA8A7A5A3A19F9E9CDA
:100490009A98969492908E8C8A89878583817F7DA5
:1004A0007B79777573716F6D6B6968666462605E86
:1004B0005C5A5957555351504E4C4A49474543424F
:1004C000403E3D3B3A3836353332302F2D2C2A29E9
:1004D0002826252322000101010101010101010259
:1004E00002020202020202020303030303030303E4
:1004F00004040404040404050505050506060606AF
:1005000006070707070708080808090909090A0A6A
:100510000A0B0B0B0C0C0C0D0D0D0E0E0E0F0F0F0E
:100520001010111111121213131414151516161799
:1005300017181819191A1A1B1B1C1D1D1E1E1F2007
:1005400020212222232424252626272829292A2B54
:100550002C2D2D2E2F303132323334353637383979
:100560003A3B3C3D3E3F4041424344454647484973
:100570004A4C4D4E4F50515354555658595A5B5D45
:100580005E5F616264656668696B6C6D6F707273E3
:100590007577787A7B7D7E8082838587888A8C8E4A
:1005A0008F91939596989A9C9EA0A2A3A5A7A9AB7C
:1005B000ADAFB1B3B5B7BABCBEC0C2C4C6C9CBCD6E
:1005C000CFD1D4D6D8DBDDDFE2E4E7E9EBEEF0F320
:1005D000F5F8FAFDFFFFAA7F554011241FBECFEFAB
:1005E000DAE0DEBFCDBF04B603FE18C08091E90398
:1005F0009091EA03A091EB03B091EC038730904B0C
:10060000A740B04B59F41092E9031092EA031092FC
:10061000EB031092EC03E0E0F8E3099511E0A0E0B1
:10062000B1E0E6ECFBE402C005900D92A039B10701
:10063000D9F723E0A0E9B1E001C01D92A93EB207BD
:10064000E1F70E94B70A0C94E1250C9400001F9377
:10065000CF93DF93CDB7DEB767970FB6F894DEBFC1
:100660000FBECDBF4B8B5C8B6D8B7E8B8F8B6111E7
:100670001092740286E09E01235F3F4FD901E82F5C
:100680001D92EA95E9F795E0FE017396D901019074
:100690000D929A95E1F79C894E895F897B897D87C8
:1006A0009E876F87598B488BF901DE011796019061
:1006B0000D928A95E1F7CE0107960E94A417811149
:1006C0003EC086E0FE013796DE01119601900D9244
:1006D0008A95E1F7FF81E8856A857B85611571055B
:1006E00031F0EF3F31F481E0FF3F19F403C081E0C6
:1006F00001C080E080FD23C02091210230E0C901CB
:100700000196877099274091520250E0841795070F
:1007100079F1F983EA837D836C8396E0929FD0011F
:10072000939FB00D1124AE5DBD4FFE013196019037
:100730000D929A95E1F7809321020E940F1716E01F
:1007400080915202909121028917F9F0189FC001FF
:1007500011248E5D9D4F0E94A4178823B1F08091D3
:10076000520290E001968770992780935202E8CF59
:100770000E9483231092210210925202EBE1F2E0D8
:1007800086E0DF011D928A95E9F767960FB6F89427
:10079000DEBF0FBECDBFDF91CF911F91089581FFC6
:1007A00002C0259801C0259A2D9808958F929F9296
:1007B000AF92BF92CF92DF92EF92FF920F931F936F
:1007C000CF93DF93CDB7DEB72A970FB6F894DEBF8D
:1007D0000FBECDBFFC01D080118183819481892B14
:1007E00039F01F3F39F491E00FEFD01203C003C07E
:1007F00091E001C090E090FD3AC67F0185E0DE0106
:10080000169601900D928A95E1F7F70122818E816B
:100810009F81222349F00E945622082F682F8E8143
:100820009F810E94DE2203C00E94B222082FE12F86
:10083000F0E016E0019FE00DF11D112464E0EE0FE1
:10084000FF1F6A95E1F7ED0DF11DEE0FFF1FEB5A4B
:10085000FD4F05911491043F2CE5120759F190F4D6
:10086000093D8CE51807E9F00A3D9CE51907A1F15F
:10087000083DECE51E07B1F506E221EE41EE68ED1C
:100880007CE514C0063FFCE51F0701F1C8F0073FF7
:100890003CE5130739F507E225EE46EE67EF7CE508
:1008A00005C007E225EE45EE69ED7CE5C7010E9433
:1008B000C91D00C206E221EE40EE64EF7CE5F6CFF2
:1008C00007E225EE44EE65EF7CE5F0CF06E221EE8F
:1008D00042EE66EF7CE5EACF08E221E045EE6AED04
:1008E0007CE5E4CFF7018281882309F45BC1109293
:1008F00088030430FDE51F0758F40B3F2CE5120771
:1009000080F4C80182509C45449708F035C109C065
:1009100002363DE5130729F0063A8DE5180709F080
:100920002BC10E94F7159093940380939303013198
:100930009CE5190709F4C6C008F042C00930FCE57F
:100940001F0709F49BC000F505303CE5130709F4C7
:1009500085C078F403309CE5190709F478C008F0E5
:100960007AC002301C4509F0F7C080919303816082
:10097000F1C007302CE5120709F478C008F07AC0FE
:10098000809193038061E6C00D308CE5180709F46F
:1009900087C058F40B30ECE51E0709F479C008F065
:1009A0007BC08091930388606FC00F302CE51207E5
:1009B00009F480C008F082C080919303877FCAC089
:1009C0000E3F8CE5180709F471C000F50531ECE520
:1009D0001E0709F485C068F403312CE5120709F4F9
:1009E00075C008F095C00E948323809193038F7790
:1009F000B1C00C3F8CE51807A9F108F054C00B3FBB
:100A00001C4509F0A9C08091940340C00230FDE567
:100A10001F0709F489C058F401153DE5130709F4CF
:100A20005AC008F069C08091940382602FC00236DA
:100A30009DE5190709F47EC0063AEDE51E0709F4A5
:100A400083C003301D4509F087C060E06EC080910F
:100A5000930382607FC08091930316C080919303BB
:100A6000886078C08091940382604FC08091930326
:100A7000806270C08091930380646CC00E94832365
:100A800080919303806866C0846064C081603DC0CB
:100A9000809193038E7F5EC0809193038D7F5AC0B7
:100AA0008091930316C08091940318C080919403A1
:100AB0008D7F2BC0809193038F7E4CC080919303D8
:100AC0008F7D48C0809193038F7B44C080919303B6
:100AD000877F8B7F3FC0809194038D7F8E7F15C071
:100AE0008091930382FB222720F991E0922790FBCB
:100AF00082F990FB83F92EC080919403982F9095F2
:100B000091708E7F892B90FB81F98093940324C090
:100B10000E9483238091930387FB222720F991E091
:100B2000922790FB87F916C061E08EE090E00E946A
:100B3000F82412C08091930384FB222720F991E0CE
:100B4000922790FB84F906C080919303982F90958B
:100B500090FB80F980939303609193031091940329
:100B600084E090E00E94F824612F82E290E00E94ED
:100B7000F8240E9483239EC006312CE5120721F53C
:100B8000809175028A7A91E009F490E09093920145
:100B9000882311F065E301C069E28BEF91E00E94C8
:100BA0005C1D0FC00631FCE51F0709F064C0809191
:100BB0009201882309F4A7C365E38BEF91E00E94BB
:100BC000341D0E94801676C00B353DE5130709F4ED
:100BD0004CC058F401159CE51907C1F00F3D1C45A8
:100BE00009F09DC00E94081665C00C35FDE51F0781
:100BF00009F43DC00D351D4509F091C08091940365
:100C000082FB882780F991E0892732C00E948323E4
:100C10003FEF84E39CE0315080409040E1F700C01A
:100C2000000081E08093E00080E28093D800109281
:100C3000C900EFE1FEE43197F1F700C0000087E062
:100C400090EBDC018093E9039093EA03A093EB031C
:100C5000B093EC039CE088E10FB6F894A8958093DC
:100C600060000FBE90936000FFCF81E001C080E084
:100C70000E94F21654C08091750282720D3C2CE5E0
:100C8000120709F4D4C3C8F1023D2CE5120709F498
:100C9000DEC308F46AC3053D2CE5120709F4DDC381
:100CA00008F476C3063DECE51E0709F4DBC30E35F8
:100CB0001D45A9F580915302877009F4D8C3F70147
:100CC0008281882309F4D3C38091940382FDCFC32A
:100CD00082E02A960FB6F894DEBF0FBECDBFDF913B
:100CE000CF911F910F91FF90EF90DF90CF90BF9029
:100CF000AF909F908F900C94D516073C9CE51907F8
:100D000009F481C308F00FC3043CFCE51F0709F494
:100D100070C308F0FAC2033C1C4509F445C3F7014F
:100D2000828100811181882349F0C8010E945622E6
:100D3000D82E682FC8010E94DE2204C0C8010E947C
:100D4000B222D82EE12FF0E016E0D19EE00DF11D89
:100D5000112434E0EE0FFF1F3A95E1F7E00FF11D8B
:100D6000EE0FFF1FEB5AFD4F859194910E945D1489
:100D70008C01982EF701D280A580A2945FE0A52275
:100D8000809153028770B9F0DD20A9F0812F807F18
:100D9000803421F080E2800F883068F080919403E5
:100DA00082FD09C082E00E94D516809153028770AF
:100DB000CC24C3948111C12CB12EB2942FE0B22265
:100DC0008B2D90E08C30910508F05CC2FC01EA5A52
:100DD000FF4F0C948425812F807F1F70882311F092
:100DE0001295107FDD20B9F0112309F438C280E29A
:100DF000800F883010F0911006C080917502182B7A
:100E00001093750205C080917402182B1093740220
:100E10000E94801624C2802F0E94A923112309F466
:100E200031C2005E083078F1992069F11095809107
:100E3000740218231093740229C0812F807F1F70C1
:100E4000803211F01295107F992021F0F1E09F1669
:100E5000D9F149C08091940382FF1BC0DD2069F065
:100E6000112339F080917502182B109375020E949E
:100E7000801680E00E94092405C280E00E94A92318
:100E8000112309F4FFC1812F0E9479160E94801658
:100E9000F9C1DD2081F080917602AA2051F001E0B5
:100EA000A01207C0182B181709F4ECC11093760292
:100EB000E9C1812B10C0AA2021F021E0A21609F47B
:100EC000E1C10E94731627C0DD2041F035E03A15DC
:100ED00008F4D8C1812F0E949F23D4C184E08A15D1
:100EE00008F4D0C118C0DD2049F0AA2099F3F70119
:100EF000858180FFB4C18F708583ECCFAA2059F023
:100F0000093309F0BCC1FFEF17EE23E0F1501040A8
:100F10002040E1F7B2C1812F0E949823B3C1812FF5
:100F200086958695837019F0813059F0ABC1DD202C
:100F300019F0C801937002C080E090E00E94A71DE4
:100F4000A9C1DD2019F0C801937002C080E090E0D3
:100F50000E94911D9FC1802FDD2019F00E94E02189
:100F600002C00E9427210E94FD2094C1812F83701E
:100F700009F069C0D1108AC1902F9295969597700B
:100F8000990F990F802F8F70882E912CA12CB12C46
:100F9000092E04C0880C991CAA1CBB1C0A94D2F709
:100FA00004FF12C04FE050E060E070E004C0440F66
:100FB000551F661F771F9A95D2F7DB01CA018095EE
:100FC0009095A095B09503C080E090E0DC01169567
:100FD0001695412F4370423019F1C8F40091770201
:100FE000109178022091790230917A02413059F0C3
:100FF00088299929AA29BB29BC01CD016023712325
:10100000822393230AC0802A912AA22AB32ABC01F0
:10101000CD01682979298A299B290E94592336C143
:1010200088299929AA29BB29009177021091780271
:101030002091790230917A02BC01CD01602771279D
:1010400082279327EACFDD2019F0812F817001C01C
:101050008695882309F41AC1902F929596959770DA
:10106000990F990F802F8F70882E912CA12CB12C65
:10107000092E04C0880C991CAA1CBB1C0A94D2F728
:1010800004FF12C04FE050E060E070E004C0440F85
:10109000551F661F771F9A95D2F7DB01CA0180950D
:1010A0009095A095B09503C080E090E0DC01169586
:1010B0001695412F43704230D9F068F500919301A5
:1010C000109194012091950130919601413059F091
:1010D00088299929AA29BB29BC01CD016023712344
:1010E000822393231EC0802A912AA22AB32A13C0E6
:1010F00088299929AA29BB2900919301109194016B
:101100002091950130919601BC01CD016027712796
:101110008227932706C0BC01CD01682979298A2935
:101120009B290E940923B2C01F70DD2039F0812F56
:101130000E943823802F0E949F23A8C0802F0E94E6
:101140009823812F0E941323A1C0802F32EF931682
:1011500009F443C0391538F090EF991659F0E1EFD2
:101160009E16B1F177C0F3EF9F16F1F124EF9216BE
:1011700059F170C0DD2019F134E03A1508F482C04D
:101180001F7181E090E0A0E0B0E0AC01BD0104C0BF
:10119000440F551F661F771F1A95D2F78091930150
:1011A00090919401A0919501B09196018A019B01C3
:1011B000082719272A273B27C901B80129C025E09C
:1011C0002A1508F45FC0DCCF8091940382FF23C00E
:1011D000DD2029F0812F8F7130C0DD20D9F3812FE0
:1011E0008F710E9413234EC0DD2079F01F7181E0C2
:1011F00090E0A0E0B0E0BC01CD0104C0660F771F15
:10120000881F991F1A95D2F703C060E070E0CB01E8
:101210000E94092337C0DD2099F01F71812F0E94A1
:1012200038238091940382FD07C038E0139FC001EA
:101230001124836080935302812F0E94382322C09F
:1012400081E00E94D51681E08A15E0F482E00E94D8
:10125000D51618C0DD2029F0AA2009F4BBCF802FB5
:1012600009CEAA2009F4BBCF893349F49FEFE7EEFA
:10127000F3E09150E040F040E1F700C00000802F23
:101280000E94A92388EF8B0D843020F40E94BD1D9D
:101290000E94CF03CC20A9F08091530280FD11C0A1
:1012A000F70112828595859585950E943823C7019F
:1012B0000E94D603809153028595859585950E945D
:1012C000132385E0F701DE01119601900D928A95B6
:1012D000E1F789819A810E94B222EA81F0E006E07A
:1012E000809FE00DF11D112484E0EE0FFF1F8A9511
:1012F000E1F78981E80FF11DEE0FFF1FEB5AFD4F5B
:1013000085919491B4C069E258CC053C9CE51907DD
:1013100009F474C0063C1C4509F001CD4DE950E2CA
:1013200066EA70E288C00A3CFCE51F0709F475C054
:1013300070F4083C3CE5130709F46AC0093C1C45FD
:1013400009F0EDCC41E950E265E870E274C00B3C75
:10135000ECE51E0709F466C00C3C1C4509F0DFCC27
:1013600041EF5EE162E07FE166C00F3C8CE518076B
:1013700009F467C008F462C0003DECE51E0709F4FB
:1013800063C0013D1C4509F0CACC6EE089E067C02E
:10139000033D8CE5180709F45DC0043D1C4509F0C8
:1013A000BECC61E088E160C08091C80180FF1BC0B5
:1013B0008E7F8093C8016091C8017091C9018091AE
:1013C000CA019091CB010E94DF1E1092AC030FEF77
:1013D00010E722E0015010402040E1F700C000007B
:1013E0000E94851E67CC81608093C80161E086956C
:1013F0003BC04AEE50E263EF70E21DC043EF50E2A3
:101400006AEE70E218C046EA50E26DE970E213C07D
:1014100045E850E261E970E20EC04DE650E269E74E
:1014200070E209C049E750E26DE670E204C042E0B4
:101430005FE161EF7EE10E94691E3CCC61E081E0EA
:1014400013C065E082E00BC068E086E008C064E19C
:101450008FE005C067E185E102C062E289E10E9498
:10146000571E28CC61E083E20E94AF2023CC2A964D
:101470000FB6F894DEBF0FBECDBFDF91CF911F91A5
:101480000F91FF90EF90DF90CF90BF90AF909F9023
:101490008F900895CF93DF93C82FD62F809193011B
:1014A00090919401A0919501B09196010097A105AA
:1014B000B10599F1B695A7959795879580FF2DC0B1
:1014C00080917502982F9272282F2474817166235F
:1014D00091F0222319F00E94A6202BC0882319F036
:1014E0000E94792026C0992319F00E94912021C0E2
:1014F0000E94F3201EC0222319F00E949D202BC0C1
:10150000882319F00E946D2026C0992319F00E94AB
:10151000852021C00E94EA201EC060E070E0DD232B
:1015200021F089EA0E94CD2404C08AEA0E94CD24D9
:1015300012C0C11104C060E070E08CEA09C0C13083
:1015400081F46AE070E0DD2311F08AEA01C089EAE3
:101550000E94CD2406C0C111F2CF60E070E08BEA9A
:10156000F7CF81E0DF91CF91089580E00895CF9388
:10157000DF93CDB7DEB768970FB6F894DEBF0FBE26
:10158000CDBF84B7877F84BF0FB6F894A8958091AC
:101590006000886180936000109260000FBE90E050
:1015A00080E80FB6F89480936100909361000FBEBD
:1015B00085B7806885BF85B7806885BF85EB9AE071
:1015C00090939101809390010E94FE120E941D133E
:1015D0008091E20084608093E20078948091F10130
:1015E0008823A1F01091E9001F709091EC00892FE1
:1015F000817090FD80E8182B1092E9008091E8003E
:1016000083FD0E94ED0F1F701093E90082E084BDFE
:1016100093E095BD9AEF97BD80936E002FE131E086
:10162000ABE1B1E061E070E08D91E82FE295EF7001
:10163000F0E041A18F706B0102C0CC0CDD1C8A95DB
:10164000E2F7C601842B81A32A173B0769F7ABE1B8
:10165000B1E061E070E08D91E82FE295EF70F0E08D
:1016600092A18F70AB0101C0440F8A95EAF7842FD5
:101670008095892382A32A173B0769F745E251E049
:10168000AFE1B1E061E070E08D91E82FE295EF709D
:10169000F0E021A18F708B0102C0000F111F8A950D
:1016A000E2F7C801902F9095922391A392A1892BE4
:1016B00082A34A175B0741F787EA282E81E0382E7C
:1016C000A7EAB1E0EBE9F1E0119211921D921D92AF
:1016D0002E163F06C9F780E090E00E94F224893E72
:1016E0009E4F11F00E94081682E090E00E94E424D0
:1016F0008093B3010E94F715909394038093930312
:1017000083E090E00E94E424682F70E080E090E0A5
:101710000E94592380919701811136C080E090E0AA
:101720000E94F224893E9E4F21F00E9408160E94DA
:10173000131F88E090E00E94EC246093C80170932E
:10174000C9018093CA019093CB016E7F71F40E940E
:10175000131F88E090E00E94EC246093C80170930E
:10176000C9018093CA019093CB010E94CC1E1092B4
:10177000AC038091C80180FF04C060E086950E94A0
:10178000AF2081E08093970125E331E0A7E3B1E04A
:1017900041E050E001E0A933B00769F18D91E82FF5
:1017A000E295EF70F0E061A18F706A0102C0CC0C8D
:1017B000DD1C8A95E2F7C6019C2D9095962391A396
:1017C00092A1892B82A3F90181919F01E82FE295D3
:1017D000EF70F0E061A18F706A0102C0CC0CDD1CDB
:1017E0008A95E2F7C6019C2D9095962391A392A12C
:1017F000892B82A3CFCF8FE891E00197F1F700C04A
:1018000000008CB186FB882780F929B130E0220FD7
:10181000232F221F330B232B11F490E001C092E001
:10182000892B8093C40183B182FB882780F91E999C
:1018300002C090E001C092E0892B8093C50180E056
:1018400091E090938C0380938B0388248394912C54
:10185000412C512C32014394FF24F39480E090E01A
:1018600010E0EBE1F1E020E030E0A401022E02C044
:10187000440F551F0A94E2F748235923022E02C051
:10188000559547950A94E2F75081A52FA295AF7020
:10189000B0E092966C9192975F70640102C0CC0C9C
:1018A000DD1C5A95E2F7442319F0A601462B03C02C
:1018B000A6014095462392964C932F5F3F4F319659
:1018C0002430310591F60AE10A95F1F700C0A30131
:1018D0009201082E04C0220F331F441F551F0A9483
:1018E000D2F7B90120953095EBE9F1E04FE151E0F5
:1018F0005A8B498B00E06F0140815181A989BA89D7
:10190000ED90BA8BA98BAE2CA294AFE0AA22B12C99
:10191000D5019096AC90B12CBE2DBF7002C0B5948D
:10192000A794BA95E2F7A0FC04C05A01A62AB72AE8
:1019300003C05A01A222B322B182A0823296D601FC
:10194000CD90DC904C155D0509F001E02E163F06A8
:1019500091F6102B01968031910509F082CF112369
:1019600041F0F0929A010E94031D90939901809397
:10197000980180919A018823D1F1809198019091EA
:1019800099010E94F41C0A9790F180919B0190911B
:101990009C019093A8018093A70180919D01909153
:1019A0009E019093AA018093A90180919F0190913B
:1019B000A0019093AC018093AB018091A101909123
:1019C000A2019093AE018093AD018091A30190910B
:1019D000A4019093B0018093AF018091A5019091F3
:1019E000A6019093B2018093B10110929A01112344
:1019F00059F08FB7F89440918F0350919003609104
:101A00009103709192038FBFE4EBF1E0A7EAB1E09C
:101A100000E010E0602F2D913D91819191918227FE
:101A20009327009779F170E0CC24C394D12CAC01BA
:101A30004C215D21452B09F17F8368872C213D21B5
:101A400081E0232B09F480E089870E94031D8160D7
:101A5000782F9B878A874F81588569858B850E945F
:101A60002703000F111FF801EC54FE4F8081918174
:101A7000C826D926D182C0821AC07F5FCC0CDD1C5B
:101A80007031A9F60F5F1F4F0630110519F68FEF61
:101A90008C878D871E860E94031D8160782F988B0E
:101AA0008F874C855D856E8588890E94270380918C
:101AB000AC03882309F493C08091AB03E091C80183
:101AC000E695E81BE093A703823059F4F0E0EA5171
:101AD000FF4FE4910E2F10E0F5EDCF2EFBE1DF2E4E
:101AE00059C0863059F4F0E0ED51FF4FE4910E2FCC
:101AF00010E0E5ECCE2EEBE1DE2E4CC0893061F437
:101B0000E695F0E0E052FF4FE4910E2F10E07BE508
:101B1000C72E7BE1D72E3EC08F3061F4E695F0E012
:101B2000E352FF4FE4910E2F10E06EEEC62E6AE1F5
:101B3000D62E30C0853159F4F0E0E652FF4FE491E3
:101B40000E2F10E050EAC52E5AE1D52E23C0883161
:101B5000A1F0833249F4E8EDF0E00591149145E8F5
:101B6000C42E4BE1D42E16C0843271F404EF11E080
:101B70003DEDC32E39E1D32E0DC008E210E027E180
:101B8000C22E2AE1D22E06C000ED17E099E4C92E3C
:101B900099E1D92E8091A803882361F01092A803BF
:101BA0000E94031D9093A6038093A5031092AA039D
:101BB0001092A9030E94031DE091A503F091A603D2
:101BC0008E1B9F0B8F3F9F4750F40E0F1F1F1093CC
:101BD000A6030093A50385EA93E0F601099504ECBA
:101BE00011E01C8B0B8B82ECC82E81E0D82E00EC10
:101BF00011E025E331E03A8B298B47E351E0588F20
:101C00004F8B84EC91E09E8B8D8BB12CE12CAD89B8
:101C1000BE898D91BE8BAD8BE82FEE0FEE0FAF8995
:101C2000B88D2D91B88FAF8BA22FA295AF70B0E079
:101C300090968C9190E02F7002C0959587952A958B
:101C4000E2F79C0121703327A989BA898D91BA8B5B
:101C5000A98BA82FA295AF70B0E090964C9150E060
:101C60008F7002C0559547958A95E2F7CA01817039
:101C7000992740FF02C082E090E0822B932B8E2BAD
:101C8000EB89FC898193FC8BEB8B8F70E82FF0E064
:101C9000EB5DFE4F9081D6018C91890F8C9384303F
:101CA00054F0F80180818F5F808360E08E2D0E9468
:101CB0004A0A21E001C020E0D6018C918D3F4CF40E
:101CC000F80180818150808361E08E2D0E944A0A54
:101CD00021E0D6018C91082E000C990B64E070E095
:101CE0000E944E25F60181936F01B22AE3940F5FA3
:101CF0001F4FF2E0EF128BCFBB2059F08FB7F89453
:101D000040918F03509190036091910370919203E1
:101D10008FBF86E0EFE9F3E0DE01119601900D92AE
:101D20008A95E1F7D090A103E090A2030091A3036C
:101D30001091A4031092A1031092A2031092A30386
:101D40001092A403D11003C0EE2009F44FC080917B
:101D50009D0390919E030E94F41C9C019091990315
:101D6000992309F4C1C02531310508F43FC09F3FD4
:101D700019F09F5F90939903DD2061F00E94C021CC
:101D80001D1414F09FEF01C091E0899F802D112454
:101D90008093A103EE2061F00E94C0211E1414F074
:101DA0009FEF01C091E0899F802D11248093A203B1
:101DB0003091A1033323D1F02091A2032223B1F06B
:101DC00045EB3403C0011124992319F09093A1032A
:101DD00002C0F092A10355EB2503C0011124992301
:101DE00019F09093A20302C0F092A203011103C064
:101DF000112309F44FC080919B0390919C030E9492
:101E0000F41C9C0190919803992309F472C0213528
:101E1000310508F43FC09F3F19F09F5F90939803EE
:101E2000002361F00E949E21101614F09FEF01C064
:101E300091E0899F802D11248093A303112361F0E9
:101E40000E949E21111614F09FEF01C091E0899F1E
:101E5000802D11248093A4033091A3033323D1F068
:101E60002091A4032223B1F045EB3403C0011124D7
:101E7000992319F09093A30302C0F092A30355EBAA
:101E80002503C0011124992319F09093A40302C0E3
:101E9000F092A4038091A10381110BC08091A20351
:101EA000811107C08091A303811103C08091A40315
:101EB00081110E94FD20DB82EC820D831E8386E06F
:101EC000FE013196AFE9B3E001900D928A95E1F7FA
:101ED0000E94BD1D9091C601891709F4BFCC809363
:101EE000C6010E94CF03BACC2B30310508F041CF98
:101EF0007DCF2B30310508F090CFCCCF909193035C
:101F000092FF0DC0282F2871283019F4877F846034
:101F100006C0282F2471243011F48B7F886093FF32
:101F20000DC0282F2871283119F4877E846106C0DE
:101F3000282F2471243111F48B7E88612091940321
:101F400020FF0DC0382F3871383019F4877F816039
:101F500006C0382F3171313011F48E7F886021FF37
:101F60000DC0282F2871283119F4877E816106C0A1
:101F7000282F2171213111F48E7E886194FD877E96
:101F80000895EF92FF920F931F93CF93DF937C01FD
:101F90008B010E94E91B811119C0E7010115110590
:101FA000A1F08091E80085FD0AC08091E8008E775D
:101FB0008093E8000E94E91B882381F307C0899180
:101FC0008093F10001501109E9CF80E0DF91CF91BA
:101FD0001F910F91FF90EF9008951F93CF93DF9380
:101FE000CDB7DEB7AA970FB6F894DEBF0FBECDBF50
:101FF000E3EFF1E08BEF91E02091F10021938E1758
:102000009F07D1F78091F401833009F461C030F467
:10201000813071F0823009F49BC0B2C08A3009F47B
:1020200087C08B3009F46CC0893009F0A9C020C08A
:102030008091F301813A09F0A3C08091E800877F85
:102040008093E8008091F7019091F801892B21F4A9
:1020500060E28FEC91E003C060E080E090E070E02F
:102060000E94701C8091E8008B778093E80088C004
:102070008091F301813209F083C08091F701909142
:10208000F801029708F07CC08091E800877F809378
:10209000E8008091E80082FD05C08091F101811186
:1020A000F8CF6EC02091F3008091F20090E0922B67
:1020B000029731F48091F100813011F0863021F4E3
:1020C0008091F1008093CE018091E8008B7754C01D
:1020D0008091F301813A09F053C08091F70190910A
:1020E000F801892B09F04CC08091E800877F80932C
:1020F000E8008091E80080FFFCCF80910C0137C0A0
:102100008091F3018132E1F58091F7019091F8011E
:10211000892BB1F58091E800877F8093E8000E94C9
:102120001C1C8091F50180930C010E94832328C020
:102130008091F301813221F58091E800877F8093BF
:10214000E8000E941C1C8091F6018093CD0118C00C
:102150008091F301813AA1F48091E800877F809318
:10216000E8008091E80080FFFCCF8091CD01809352
:10217000F1008091E8008E778093E8000E941C1C9B
:102180008091E80083FFCEC18091F3019091F4012A
:10219000492F50E04A30510508F0C4C1FA01EE5908
:1021A000FF4F0C948425803821F0823809F0BAC1A1
:1021B00008C08091EF019091F001992389F082602D
:1021C0000FC08091F7018F70873008F0ABC180930A
:1021D000E9008091EB0085FB882780F91092E900E7
:1021E0009091E800977F9093E8008093F10010921F
:1021F000F10065C1282F2D7F09F094C1882319F0C3
:10220000823061F08FC18091F501813009F08AC17F
:10221000933009F080E08093F0012EC08091F501A9
:1022200081112AC08091F7018F702FEF280F26307F
:1022300008F078C18093E9002091EB0020FF1CC0DA
:10224000933021F48091EB00806214C09091EB00F8
:1022500090619093EB0021E030E0A90102C0440FAF
:10226000551F8A95E2F74093EA001092EA008091A8
:10227000EB0088608093EB001092E9008091E80009
:10228000877F20C181114EC11091F5011F77809188
:10229000E3008078812B8093E3008091E800877FC2
:1022A0008093E8000E941C1C8091E80080FFFCCF16
:1022B0008091E30080688093E300111102C082E006
:1022C00001C083E08093F1012DC18058823008F075
:1022D00029C18091F5019091F6018C3D53E095075D
:1022E00079F583E08A838AE289834FB7F894DE0127
:1022F000139620E03EE051E2E32FF0E050935700C8
:10230000E49120FF03C0E295EF703F5FEF708E2FE6
:1023100090E0EA3010F0C79601C0C0968D939D936F
:102320002F5F243149F74FBF8091E800877F80936A
:10233000E8006AE270E0CE0101960E94701CAEC017
:102340004091F7015091F801292F332723303105AF
:10235000A9F068F42130310509F4F3C022303105C9
:1023600009F0E0C08BE390E0E0EEF1E044C0213200
:10237000310521F12232310571F1D4C09927813024
:102380009105A1F058F0029709F0CCC0EDE2F2E01F
:10239000E4918E2F90E0EDE2F2E02AC0E1E5F2E078
:1023A000E4918E2F90E0E1E5F2E022C0E1E4F2E07A
:1023B000E4918E2F90E0E1E4F2E01AC0411551055E
:1023C00009F4C4C04130510509F0ACC089E090E087
:1023D000EBE0F2E010C04115510509F4BCC04130FA
:1023E000510509F09FC086EB90E0EAEEF0E003C0F3
:1023F000009709F497C02091E800277F2093E80018
:102400002091F9013091FA018217930708F49C0199
:1024100040E02115310589F18091F101882309F40B
:102420003DC08530D9F18091E80083FD37C08091AF
:10243000E80082FD2FC08091E80080FFEACF409144
:10244000F3008091F20090E0942B2115310559F0B2
:102450008830910540F444914093F1003196215029
:1024600031090196F2CF41E0089709F040E08091F0
:10247000E8008E778093E800CCCF4111CDCF0AC021
:102480008091F101882351F0853041F08091E8007E
:1024900083FD04C08091E80082FFF2CF8091E800C4
:1024A0008B778093E8003EC08038E1F58091E800AA
:1024B000877F8093E8008091F2018093F100809102
:1024C000E8008E778093E8000E941C1C2BC08111CD
:1024D00029C08091F5019091F6019927029714F592
:1024E0008091E800877F8093E8001091F5011093B8
:1024F000F2010E941C1C111106C08091E30087FDAF
:1025000002C081E001C084E08093F10142E061EC0F
:1025100081E00E943B1C42E261EC82E00E943B1C95
:102520008091F1018091E80083FF1AC08091E8005A
:10253000877F8093E8008091EB0080628093EB00BE
:102540000FC082E190E0EBE1F2E055CF89E090E04E
:10255000E2EFF1E050CF80E490E0E0EAF1E04BCF31
:10256000AA960FB6F894DEBF0FBECDBFDF91CF9114
:102570001F9108951F920F920FB60F9211242F935F
:102580003F934F935F936F937F938F939F93AF93FB
:10259000BF93CF93DF93EF93FF93C091E900CF7088
:1025A0008091EC00D82FD17080FDD0E81092E90026
:1025B0008091F000877F8093F00078940E94ED0F67
:1025C0001092E9008091F00088608093F000CD2B9C
:1025D000CF70C093E900FF91EF91DF91CF91BF9150
:1025E000AF919F918F917F916F915F914F913F91AB
:1025F0002F910F900FBE0F901F901895E8EDF0E00F
:1026000080818E7F80831092E2001092DA00109217
:10261000E100A0EEB0E08C9181608C9380818F7797
:10262000808319BCA7EDB0E08C918E7F8C93808164
:102630008F7E80831092C7010895CF92DF92EF9230
:10264000FF920F931F93CF93DF93C8EDD0E0888163
:102650008F7E8883E7EDF0E080818160808384E075
:1026600082BF81E08093C70188818E7F888302EEDC
:1026700010E0F80110821092DA0081EEC82ED12C01
:10268000F601108288818F778883888180688883AB
:1026900088818F7D888319BC1092F1011092F2011C
:1026A0001092F0011092EF0190EEE92EF12CF7015B
:1026B00080818B7F808388818160888342E060E0B5
:1026C00080E00E943B1CF60180818E7F8083F801B0
:1026D000808181608083808188608083F701808130
:1026E0008E7F8083888180618883DF91CF911F9165
:1026F0000F91FF90EF90DF90CF9008951F920F926F
:102700000FB60F9211242F933F934F935F936F93C4
:102710007F938F939F93AF93BF93EF93FF9380919A
:10272000E10082FF09C08091E20082FF05C0809134
:10273000E1008B7F8093E1008091DA0080FF2AC066
:102740008091D80080FF26C08091DA008E7F809330
:10275000DA008091D90080FF18C080E189BD82E154
:1027600089BD09B400FEFDCF81E08093F101809125
:10277000C70181110FC00E94FE120E941D1380919B
:10278000E20084608093E20005C019BC1092F10160
:102790001092C7018091E10080FF17C08091E20094
:1027A00080FF13C08091E2008E7F8093E2008091D1
:1027B000E20080618093E2008091D8008062809383
:1027C000D80019BC85E08093F1018091E10084FF7D
:1027D00038C08091E20084FF34C080E189BD82E18D
:1027E00089BD09B400FEFDCF8091D8008F7D809314
:1027F000D8008091E1008F7E8093E1008091E2001B
:102800008F7E8093E2008091E20081608093E200FD
:102810008091F201882311F084E007C08091E300E9
:1028200087FD02C081E001C083E08093F1010E9436
:1028300083230E94BD1D0E94CF030E946F1E8091C2
:10284000F1018091E10083FF27C08091E20083FFC6
:1028500023C08091E100877F8093E10082E0809334
:10286000F1011092F2018091E1008E7F8093E100EE
:102870008091E2008E7F8093E2008091E20080618F
:102880008093E20042E060E080E00E943B1C809187
:10289000F00088608093F000FF91EF91BF91AF91BD
:1028A0009F918F917F916F915F914F913F912F9168
:1028B0000F900FBE0F901F901895CF93DF93823823
:1028C000910569F1B0F48133910509F46FC048F4C2
:1028D0008932910509F465C08A32910509F46BC00B
:1028E0008AC08533910509F457C089339105B9F041
:1028F00082C0833E910571F138F4803E9105B1F0BC
:10290000823E910511F177C0863E9105B9F1873E6F
:102910009105C9F1843E910509F06DC024C0209154
:10292000930320FD53C021FD51C065C080919303E6
:1029300080FD46C08091940380FF48C0809193033E
:1029400084FD50C183EE90E04FC18091930382FFDC
:102950003AC0F4CF8091930382FD35C080919403F7
:1029600080FD34C0EBCF8091940381FF35C080910E
:10297000930384FD37C187EE90E036C180919303C5
:1029800083FF27C0F4CF8091930383FD22C0809101
:10299000940381FD21C0EBCF8091930385FD1FC07F
:1029A00021C08091930385FD1DC019C080919303C0
:1029B00086FD1BC01DC08091930386FD19C015C004
:1029C00089E390E011C182EE90E00EC180EE90E0CC
:1029D0000BC186EE90E008C184EE90E005C189E26B
:1029E00090E002C185E390E0FFC08AE290E0FCC085
:1029F00081E390E0F9C0811531E5930708F069C0E3
:102A0000811540E59407F0F09C0174E03695279518
:102A10007A95E1F7922F9370482F437021E030E0D0
:102A200002C0220F331F4A95E2F73C68392B982FDA
:102A30009F709695969540E2949FC0011124822B39
:102A4000932BD2C0883E910568F5803E910508F031
:102A5000CBC0883A9105B8F4853A910548F0855A7B
:102A6000E82FF0E0E75CFE4F808190E09064BCC00E
:102A70008130910509F4B3C008F4B4C084309105E5
:102A800008F4B0C0B1C08F3B910508F0ABC0885AC4
:102A9000E82FF0E0EE0FFF1FE45CFE4F8081918194
:102AA0009464A2C0811520E2920758F4811531E0A8
:102AB000930708F099C08D3E910508F493C0906586
:102AC00093C0811540E4940708F48CC09F70906A0D
:102AD0008BC0811525E5920708F042C0811534E5C9
:102AE000930728F0982F8827846F906A7DC08115FE
:102AF00043E59407B0F09C012370332741E050E098
:102B000002C0440F551F2A95E2F7282F26952695D7
:102B100080E2289F90011124CA01822B932B9A688E
:102B200063C0811522E5920728F4982F8827816FCA
:102B3000906A5AC09C012370332741E050E002C0E4
:102B4000440F551F2A95E2F7282F2695269580E2F7
:102B5000289F90011124CA01822B932B9C6844C0AA
:102B6000EC01811539E59307A8F48115984528F003
:102B70009C2F8827806F906A37C0C11586E5D807DB
:102B800088F58C2F0E947E0F8F7190E0982F8827F8
:102B900090622AC081152AE5920790F48C2F8F70DD
:102BA0000E947E0F94E0D695C7959A95E1F7CF7075
:102BB000D0E0DC2FCC27D0699E01282BC90114C09E
:102BC00090568115904270F48D2F8F710E947E0F68
:102BD000282F2F71CE0199279062922B05C081E09A
:102BE00090E002C080E090E0DF91CF910895CF9314
:102BF00084E090E00E94E424C82F82E290E00E94EA
:102C0000E4242C2F30E0A901582BCA01CF9108955C
:102C100069EE7EEF80E090E00E94162560E082E0A1
:102C200090E00E94F82460E083E090E00E94F824A5
:102C300010927702109278021092790210927A0222
:102C400060E084E090E00E94F82460E082E290E09E
:102C50000E94F82460E085E090E00E94F82460E0A3
:102C600086E090E00E94F8246FEF87E090E00E94F9
:102C7000F82440E050E0BA0188E090E00E940A2584
:102C800060E08DE090E00E94F82440E050E0BA015E
:102C900088E190E00E940A2560E087E190E00E94D0
:102CA000F82440E050E0BA018CE190E00E940A254F
:102CB00060E070E080E290E00E94162540E050E085
:102CC000BA0188E190E00E940A2540E050E0BA0194
:102CD0008FE090E00E940A2540E050E0BA0183E1D5
:102CE00090E00C940A258091760281111092760270
:102CF00008958095909175028923809375020895B7
:102D00009091750280917402982B9093FB018091B1
:102D100076028823D9F0892B8093FB0180910C01E6
:102D2000882331F08091930387FF02C08EE101C0B8
:102D300086E0EDEFF1E090E0815028F02191222330
:102D4000D9F39F5FF9CF91110E94731640E250E0D2
:102D500064E572E08BEF91E00E94D425892B21F18C
:102D600080E2EBEFF1E0A4E5B2E001900D928A95EC
:102D7000E1F7E0918B03F0918C033097A9F08091FB
:102D80000C01882359F08091930387FF07C080913D
:102D9000FB018093FC0186E08093FB010280F381BC
:102DA000E02D8BEF91E009940895209153028095D6
:102DB000822380935302982F977099F430E0482F24
:102DC000082E000C550B2417350759F090919403E9
:102DD00092FD07C08595859585950E9413231092D5
:102DE00053020895CF93C0919403C2FB992790F9A1
:102DF000981799F080FBC2F9C093940360919303F4
:102E000084E090E00E94F8246C2F82E290E00E941F
:102E1000F82482E0CF910C94D516CF91089580913B
:102E2000520290912102891719F08F5F8770FBCFB2
:102E300008950F931F93CF93DF9380912002829583
:102E40008F7009F05DC080911D02882309F458C07D
:102E5000809152021091210260911B0270911C021C
:102E6000C0911E02D0911F0291E06F3F09F090E0E7
:102E7000292F06E0811709F443C0209721F07F3FF6
:102E800021F030E003C031E001C0322F90E030FD8E
:102E900034C0089FF001099FF00D1124DF01AE5DE1
:102EA000BD4F11963C911197371327C03C913613B3
:102EB00024C012963C91129731111FC013964D9168
:102EC0005C9114974C1B5D0B483C5105B0F480910C
:102ED00020028F70806180932002E95DFD4F808128
:102EE0008F70806180838BE192E00E94D603DF9136
:102EF000CF911F910F910C940F1701968770BACF45
:102F0000DF91CF911F910F910895CF93DF93D82F29
:102F1000C92F0E945622EC2FF0E096E0899FE00D29
:102F2000F11D112484E0EE0FFF1F8A95E1F7ED0FEC
:102F3000F11DEE0FFF1FEB5AFD4F859194910E94FA
:102F40005D14DF91CF9108959F92AF92BF92CF927F
:102F5000DF92EF92FF920F931F93CF93DF93CDB742
:102F6000DEB761970FB6F894DEBF0FBECDBF8C0100
:102F700085E0F801DE011D9601900D928A95E1F73A
:102F8000F801E28090911B0260911C0240911E02A8
:102F900050911F024115510531F06F3F31F481E02E
:102FA0009F3F19F403C081E001C080E0F82FF17069
:102FB0009F2E80FD1AC1F80130812181C380D48009
:102FC0008BE1A82E82E0B82EF0901D02F601E41BE2
:102FD000F50BFF2009F4C6C080912002E83CF10502
:102FE00008F091C0482F407F09F050C0621311C013
:102FF00093130FC0FE2CE1100CC08F708061809382
:103000002002C5010E94D60380912002F801858329
:1030100029C1CD2831F02F3F31F481E03F3F19F431
:1030200003C081E001C080E080FD03C081E08E2507
:1030300002C080E090E0F82FF170FF2E80FF1CC0EE
:10304000809152024091210256E0841709F4E8C0B1
:1030500090E0589FF001599FF00D1124EE5DFD4F57
:103060006181261306C06081631303C06281E6128A
:1030700003C001968770E9CFFE2CEE2009F4F2C060
:103080008091200281608093200249C0621306C0B3
:10309000931304C0E11002C0F80186C0C8010E9469
:1030A0006323882351F1EE2041F120912002822FE9
:1030B00082958F7090E0029774F080911B0290913E
:1030C0001C0298878F831986DB86CA862C87CE01DF
:1030D00007960E94D60386E0F801ABE1B2E00190CA
:1030E0000D928A95E1F70E9419170AC06217C9F07C
:1030F000C8010E94632381111EC0C8010E94D6032B
:10310000FF24F394AFC0482F407F81F78BE192E01A
:103110000E94D60386E0F50111928A95E9F7F12C19
:10312000A1C09313E5CFE110E3CFF8018583C80177
:103130000E94D60354C0EE2001F320912002822F7A
:1031400082958F7090E0029734F280911B029091EB
:103150001C029A8389831B82DD82CC822E83CE015E
:103160000196B7CFE83CF105D0F5FE2CEE2029F210
:10317000621327C0931325C02091200220FD18C0A0
:10318000822F82958F70482F50E04115510581F0B4
:10319000F80125834F30510541F08F5F982F9295AC
:1031A000907F822F8F70892B8583C8010E94D60360
:1031B00086E0F801ABE1B2E001900D928A95E1F76B
:1031C00051C0C8010E946323811185CF80912002E4
:1031D000816080932002C8010E94D60343C086E02C
:1031E000F50111928A95E9F73DC0EE2009F485CFEB
:1031F000C8010E946323F82E882309F47ECF86E05D
:10320000F801ABE1B2E001900D928A95E1F780916F
:103210001B0290911C020E9485170E94191722C060
:103220003D872E878D859E850E948517292F2295A3
:103230002F70223028F49F7039F0811105C00BC027
:10324000243028F49F7049F4805E883020F0C80153
:103250000E94D6039F2CF92C05C0F8019581907F20
:1032600099F7F9CF8F2D61960FB6F894DEBF0FBE98
:10327000CDBFDF91CF911F910F91FF90EF90DF9025
:10328000CF90BF90AF909F90089508958091CE0108
:103290000895089580939503709397036093960320
:1032A0008091F101843001F582E08093E9008FEF95
:1032B0009091E800815095FD06C095ED9A95F1F743
:1032C00000008111F5CF8091E80085FF0DC040E03E
:1032D00050E063E070E085E993E00E94C10F8091C7
:1032E000E8008E778093E8000895BC0184E00C9498
:1032F0004A19BC0183E00C944A1922E02093E900AA
:103300002FEF3091E800215035FD06C035ED3A959C
:10331000F1F700002111F5CF2091E80025FF0BC047
:1033200040E050E066E070E00E94C10F8091E8004C
:103330008E778093E8000895CF93DF9320910C015E
:10334000222339F02091930327FF03C060E222E09B
:1033500002C068E021E02093E9002FEF3091E800FF
:10336000215035FD06C035ED3A95F1F700002111E9
:10337000F5CF2091E80025FF1DC0EC0180910C01E4
:10338000811105C040E050E068E070E003C070E0EB
:1033900040E050E0CE010E94C10F8091E8008E779E
:1033A0008093E80080E2FE01AFECB1E001900D9265
:1033B0008A95E1F7DF91CF910895EF92FF920F93F5
:1033C0001F93CF93DF938C01CEE7D2E0E12CF12C59
:1033D000F8018481FCE2EF16F1041CF4882339F033
:1033E00002C0811104C09E014091CB0102C09E0128
:1033F00040E06091CA018091C9010E94221F8FEFB5
:10340000E81AF80A239698E5E916F10409F70E94EC
:10341000851EF801848190E001968170992784834C
:10342000DF91CF911F910F91FF90EF9008958F92B0
:103430009F92AF92BF92CF92DF92EF92FF920F9343
:103440001F93CF93DF93EC014C81042F10E0980180
:10345000D8010E9492259B01AC010E94A8256B0116
:103460007C01E0E2F0E0E01BF10BA5E5B0E09B01A0
:10347000AC010E94A8254B015C019F01DF010E9465
:103480008A259B01AC010E94B3259B01AC012C0D48
:103490003D1D4E1D5F1DC501B4010E946225822F96
:1034A000F22E99E2921728F093E0299F90011124BF
:1034B0000DC025E530E0281B3109C901880F991F8F
:1034C000280F391F37FF02C02F5F3F4F35952795D3
:1034D000122F10959EE7C92E92E0D92E00E085E5C7
:1034E000E82EEF1801FD02C08E2D01C08F2D960130
:1034F000412F6091CA010E94221F0F5F83E0C80E16
:10350000D11C083579F70E94851E8C81811102C07B
:1035100091E003C0803219F49FEF90930F019091D6
:103520000F01890F8C83DF91CF911F910F91FF9035
:10353000EF90DF90CF90BF90AF909F908F900895C5
:103540000F931F93CF93DF93CEE7D2E0FE0111825A
:1035500010821282339683E0E638F807C1F700E064
:1035600010E080917C02082E000C990B08171907B7
:1035700094F080910E01082E000C990B8017910792
:1035800054F09E014091CB016091CA018091C90124
:103590000E94221F03C0198218821A820F5F1F4FD8
:1035A000239608351105E9F60E94851E80910D01CC
:1035B00090917C02980F90937C0220910E01280F2D
:1035C00020930E01121614F497351CF08195809308
:1035D0000D01DF91CF911F910F910895BF92CF926E
:1035E000DF92EF92FF920F931F93CF93DF93FC0133
:1035F000828180FF03C0DD24DA9402C0DD24D394ED
:103600000EE712E0C0E0D0E028E5B22EF80111820A
:103610001082128294E0E92EF12CC12C80917B0261
:103620008C0D89352CF06B2D0E942C25892F02C022
:1036300087FD885A082E000C990BC817D90791F4FA
:103640008091CB018E9DA0018F9D500D1124559529
:1036500047955595479598016091CA018091C90198
:103660000E94221FCD0CF1E0EF1AF108B9F6219665
:103670000D5F1F4FC835D10549F60E94851E809108
:103680007B0291E0D91206C0811102C087E507C014
:10369000815005C090E00196BE010E944E258093A6
:1036A0007B02DF91CF911F910F91FF90EF90DF9000
:1036B000CF90BF900895EF92FF921F93CF93DF9327
:1036C000EC018EE7E82E82E0F82E10E08C81970165
:1036D0004091CB016091CA01810F0E94221F1E5FA1
:1036E00083E0E80EF11C103B89F70E94851E9A8149
:1036F0008C8190FF02C08F5F01C081508C83DF916D
:10370000CF911F91FF90EF9008950F931F93CF9348
:10371000DF9300D01F92CDB7DEB78C0180917D0280
:1037200081110AC09E012F5F3F4F4FEF6FEF0E9444
:10373000221F8A8180937D02F8018481813051F0BB
:1037400028F0823061F440917D020AC080917D02B0
:1037500040E007C060917D0240E080E003C040E0AF
:1037600080E060E00E94BB1EF801848190E0019639
:1037700063E070E00E944E2584830F900F900F90BD
:10378000DF91CF911F910F910895CF93DF93EC01BB
:10379000E8ECF1E0438162818C810E94B81F8C814A
:1037A0008F5F8C83DF91CF910895CF93DF93EC01EE
:1037B000EC81F0E0EB52FC4F4491E8ECF1E06281E7
:1037C00081810E94B81F8C818F5F8C83DF91CF91A4
:1037D00008952091E4003091E50095E64091EC00D9
:1037E000842F817040FF23C08091E80080FD1DC0C0
:1037F0008091F101882399F0853099F08091EB0058
:1038000085FD11C04091E4005091E5002417350773
:1038100029F3915011F09A01E1CF84E0089582E0FC
:10382000089583E0089581E0089580E0089540912F
:10383000E80042FFDDCF08958091F30187FF11C0BA
:103840008091E80082FD05C08091F1018111F8CFDF
:1038500011C08091E8008B770BC08091F101882323
:1038600049F08091E80080FFF8CF8091E8008E77E2
:103870008093E8000895982F973068F59093E900B9
:10388000981739F07091EC002091ED005091F00004
:1038900003C0242F762F50E021FD02C09F5FECCFA4
:1038A0003091EB003E7F3093EB003091ED003D7F97
:1038B0003093ED003091EB0031603093EB0070936A
:1038C000EC002093ED005093F0002091EE0027FDD6
:1038D000E5CF80E008958F708093E90081E008953E
:1038E0002091F9013091FA012617370748F0611548
:1038F000710539F42091E8002E772093E80001C08B
:10390000B901FC0120E06115710579F18091F101A7
:103910008823F1F18530F1F18091E80083FD3CC00E
:103920008091E80082FD2EC08091E80080FFEBCFFF
:103930002091F3008091F20090E0922B61157105C7
:1039400051F08830910538F421912093F1006150B5
:1039500071090196F3CF21E0089709F020E08091EA
:10396000E8008E778093E800CECF2111CFCF0AC038
:103970008091F101882361F0853061F08091E80049
:1039800083FD0AC08091E80082FFF2CF80E00895B5
:1039900082E0089583E0089581E0089578941F926D
:1039A0000F920FB60F9211248F939F93AF93BF93F3
:1039B00080918F0390919003A0919103B091920315
:1039C0000196A11DB11D80938F0390939003A09346
:1039D0009103B0939203BF91AF919F918F910F90FC
:1039E0000FBE0F901F9018959C014FB7F8948091CF
:1039F0008F0390919003A0919103B09192034FBFD8
:103A0000821B930B08952FB7F89480918F039091A8
:103A10009003A0919103B09192032FBF08951F923C
:103A20000F920FB60F9211248F939F93AF93BF9372
:103A300080918F0390919003A0919103B091920394
:103A40004196A11DB11D80938F0390939003A09385
:103A50009103B0939203BF91AF919F918F910F907B
:103A60000FBE0F901F90189520910C012223C9F0D2
:103A70002091930327FF15C0262F2695269526957E
:103A80002E31C8F4FC01E20FF11D677081E090E077
:103A900001C0880F6A95EAF7809592818923828315
:103AA0000895FC0106962281621301C012823196AC
:103AB000E817F907C1F7089520910C012223C1F0FE
:103AC0002091930327FF14C0262F2695269526952F
:103AD0002E3130F5FC01E20FF11D677081E090E0BE
:103AE00001C0880F6A95EAF79281892B8283089535
:103AF000FC0132962FEF30E04191641789F02F3F9F
:103B000019F4411101C0232F3F5F3630A9F72F3F31
:103B100039F0FC01E20FF11D27FDFA95628308954B
:103B2000089520918D0330918E032817390771F085
:103B300090938E0380938D03E0918B03F0918C031F
:103B4000309721F00084F185E02D099408952091AB
:103B5000890330918A032817390771F090938A03FB
:103B600080938903E0918B03F0918C03309721F0CF
:103B70000680F781E02D09940895E0918B03F09180
:103B80008C03309721F00190F081E02D099480E0C2
:103B900008950F931F93CF93DF93C42FD22FFC016F
:103BA00082818823C9F0409388030E94031D90936B
:103BB00087038093860380E28C0F883008F072C000
:103BC000C77081E001C0880FCA95EAF7DF91CF91F5
:103BD0001F910F910C949F238091880348133DC03F
:103BE00080918603909187030E94F41C883C910584
:103BF000A0F510E21D0FCD17E9F080E28C0F8830A0
:103C000040F4C77081E001C0880FCA95EAF70E94AE
:103C10009823183090F581E09D2F977001C0880F90
:103C20009A95EAF70E949F23093369F560E570E0F1
:103C300089E32CC0093319F460E570E002C060E04C
:103C400070E0802F0E94CD24183060F5D77081E09D
:103C500001C0880FDA95EAF70AC080E28C0F88303D
:103C600008F5C77081E001C0880FCA95EAF7DF91B7
:103C7000CF911F910F910C949823093351F460E573
:103C800070E089E309C060E070E0802F0E94CD24DD
:103C9000DDCF60E070E0802FDF91CF911F910F9119
:103CA0000C94CD24DF91CF911F910F9108959091A5
:103CB000C80190FF04C09695981740F003C0811189
:103CC00005C090E0961710F40C94F32061E00C947A
:103CD000AF20882311F0FA0101C0FB010994609123
:103CE000C801669570E04BE050E080E191E00E94F1
:103CF000C725892B19F481E08093AC030E94031D32
:103D00009093A6038093A50308958091C80180FF36
:103D10000AC0259A85B18F7D95B190622FB7F8942E
:103D2000EEE7F2E00BC0EEE7F2E0118210821282C1
:103D3000339633E0E638F307C1F7EBCF33E0E638EC
:103D4000F30789F0319148E095B9000000C037FFD2
:103D500085B9330F000000C000C000C085B900C0A5
:103D60004A9591F7EBCF2FBF8FE594E00197F1F7DC
:103D700000C0000008959091C80190FF0CC0EEE7CC
:103D8000F2E0818360834283339693E0E638F9075B
:103D9000C1F70C94851E08958091C801282F26959F
:103DA00030E02115310519F48170826005C025329B
:103DB000310524F0817088648093C8010895CF9202
:103DC000DF92EF92FF926B017C010E94CC1EB70143
:103DD000A60188E090E0FF90EF90DF90CF900C94E8
:103DE0000A258091CC01882319F081508093CC0161
:103DF0006091C8017091C9018091CA019091CB0175
:103E00000C94DF1E8091CC01833018F48F5F809377
:103E1000CC016091C8017091C9018091CA01909153
:103E2000CB010C94DF1EE8ECF1E083E0808311828B
:103E30008FEF828383831482608171818281938179
:103E40000C94DF1EAF92BF92CF92DF92EF92FF925F
:103E50000F931F93CF93DF93E82EF62EE901E42F03
:103E6000F0E0611106C0EB52FB4FE4914E2F2E2F74
:103E700071C0062F10E0EB52FB4F4491F42FC42E7B
:103E8000D12C26E0829FC00111242FEF30E0B90130
:103E90000E943A255BEA5603C001579F900D1124FA
:103EA0008E0D911D8E0D911D582F550F580FD90154
:103EB000A01BB10BAC9DC001AD9D900DBC9D900DA4
:103EC0001124E92FF59ED0011124AB2FBB277901D6
:103ED000EA1AFB0AEC9CD001ED9CB00DFC9CB00DE5
:103EE00011245901A51AB108A09E7001A19EF00CE1
:103EF000B09EF00C1124EF2CFF242E193F092C9DAD
:103F000080012D9D100D3C9D100D1124212F62303C
:103F1000710591F048F461157105E1F061307105AA
:103F2000B9F4242F4B2F16C06430710569F040F0AE
:103F30006630710579F00CC0242F492FE12F0AC09B
:103F4000492FEF2F2B2F06C0292FE42F412F02C01E
:103F5000292FEB2F49832883EA83DF91CF911F918B
:103F60000F91FF90EF90DF90CF90BF90AF900895AA
:103F7000CF93DF9300D01F92CDB7DEB79091C801E9
:103F800090FF0AC09E012F5F3F4F0E94221F4B816E
:103F900069818A810E94BB1E0F900F900F90DF9164
:103FA000CF9108955F926F927F928F929F92AF927E
:103FB000BF92CF92DF92EF92FF920F931F93CF9316
:103FC000DF9300D01F92CDB7DEB7182F762E042FC7
:103FD000622E9091C80190FF6DC0E92FE695AE2F3B
:103FE000B0E0A659BE4F8C918093AB039E7F923078
:103FF00061F49E012F5F3F4F812F0E94221F4B8152
:1040000069818A810E94BB1E43C0823019F40091ED
:10401000CB013EC0863019F41091C90139C08930F6
:10402000D9F38931A9F5E9518E2F8170582EE69583
:10403000F0E0EB52FA4FA590B4908EE7C82E82E0E4
:10404000D82EE12CF12CBB2498E5892E912CAE9C26
:10405000C001AF9C900DBE9C900D1124B4010E9434
:104060003A25812F511002C0860F01C0861B960190
:10407000402F672D0E94221F8FEFE81AF80A83E075
:10408000C80ED11C88E5E816F10409F70E94851EC8
:104090001093C9017092CA010093CB01662051F0C0
:1040A0006091C8017091C9018091CA019091CB01C2
:1040B0000E94DF1E0F900F900F90DF91CF911F9104
:1040C0000F91FF90EF90DF90CF90BF90AF909F90B7
:1040D0008F907F906F905F900895E8ECF1E04381BE
:1040E00021E1421B08F440E021E0628181810C94CF
:1040F000D21FE8ECF1E0438121E1420F08F44FEFD9
:1041000021E0628181810C94D21FE8ECF1E06281B0
:1041100021E1621B08F460E021E0438181810C947D
:10412000D21FE8ECF1E0628121E1620F08F46FEF49
:1041300021E0438181810C94D21FE8ECF1E0818180
:1041400021E04381628188500C94D21FE8ECF1E0B9
:10415000818121E043816281885F0C94D21F90911C
:10416000C80190FF36C09170811102C0926006C0F4
:10417000853210F0986402C0880F982B9093C80184
:10418000662351F06091C8017091C9018091CA0104
:104190009091CB010E94DF1E6091C801669570E08E
:1041A0004BE050E080E191E00E94C725892B19F097
:1041B0001092AC0302C00E946F1E81E08093A8039E
:1041C00020E04091CB016091CA018091C9010C941B
:1041D000D21F08958091C8018695815009F484E228
:1041E00061E00C94AF208091C80186958F5F853285
:1041F00008F081E061E00C94AF200E94031D209143
:10420000A103211104C02091A203222321F0909345
:104210009E0380939D032091A303211104C020914C
:10422000A403222321F090939C0380939B03E091AD
:104230008B03F0918C03309749F082E080939F03C9
:104240000480F581E02D8FE993E0099408958D3E77
:1042500039F49091A20397FF35C01092A20359C080
:104260008E3E29F49091A2031916BCF32BC09091B5
:10427000A1038F3E29F497FF25C01092A10349C0E6
:10428000803F19F41916CCF31DC09091A303893F08
:1042900029F41916BCF41092A3033BC08A3F19F409
:1042A00097FF10C0F8CF8B3F39F49091A40397FF8C
:1042B00009C01092A4032DC08C3F21F49091A40357
:1042C0001916BCF39FE0980F983080F421E030E09D
:1042D000A90102C0440F551F9A95E2F7CA018095C3
:1042E0009091A00389238093A00313C08D3F21F4F4
:1042F00080919A038E7F0BC08E3F21F480919A03A8
:104300008D7F05C08F3F29F480919A038B7F809326
:104310009A038091A103811106C08091A2038111AB
:1043200002C0109299038091A303811106C080916D
:10433000A403811102C010929803089580919A03FA
:1043400080FD16C081FD16C082FD18C080919803C3
:10435000882391F0883290F428E0829FC0011124D4
:1043600068E270E00E944E25862F672B29F007C077
:1043700082E0089584E0089581E0089588E008953A
:1043800080919A0380FD14C081FD14C082FD16C087
:1043900080919903882381F08E3180F420E5829FFB
:1043A000C00111246EE170E00E944E25862F089511
:1043B00084E1089588E2089588E0089580E50895ED
:1043C0008D3E21F40E94C021819504C08E3E29F4C7
:1043D0000E94C0218093A20308958F3E21F40E9481
:1043E000C021819504C0803F29F40E94C0218093A0
:1043F000A1030895893F19F40E949E2105C08A3FB8
:1044000031F40E949E2181958093A30308958B3FF0
:1044100021F40E949E21819504C08C3F29F40E94C2
:104420009E218093A40308959FE0980F983078F41C
:1044300021E030E0A90102C0440F551F9A95E2F730
:10444000CA019091A003892B8093A00308958D3F0A
:1044500021F480919A0381600BC08E3F21F48091FA
:104460009A03826005C08F3F29F480919A0384608B
:1044700080939A03089580E090E00E94A71D80E059
:1044800090E00E94911D109274020E948016EFE944
:10449000F3E086E0DF011D928A95E9F71092990317
:1044A0001092980310929A030C94FD208F929F9281
:1044B000AF92BF92DF92EF92FF920F931F93CF9331
:1044C000DF938090930190909401A0909501B0901B
:1044D0009601409177025091780260917902709133
:1044E0007A02842A952AA62AB72ACFE1D0E026E0CC
:1044F000D22EE92EF12C082F10E0D501C4010C2E8C
:1045000004C0B695A795979587950A94D2F780FD34
:1045100004C0219790F780E019C0DC9EF001DD9E79
:10452000F00D1124EE0DFF1D84E0EE0FFF1F8A95A4
:10453000E1F7E00FF11FEE0FFF1FEB5AFD4F8591E2
:1045400094910E945D14019721F38C2FDF91CF91FC
:104550001F910F91FF90EF90DF90BF90AF909F90D1
:104560008F90089520E1929F800D1124682F669509
:1045700066956695982F977085E0689FB001112425
:1045800040E050E080E0FB01E40FF51FE355FC4FF5
:10459000208130E0092E02C0369527950A94E2F773
:1045A00021703327042E01C0220F0A94EAF7822BD0
:1045B0004F5F5F4F4530510531F7089520E1929FDD
:1045C000800D1124E82FE695E695E695877051E079
:1045D00001C0550F8A95EAF785E0E89FF0011124A4
:1045E000E355FC4F20E030E070E04081CB01022E2B
:1045F00002C0969587950A94E2F781708195842789
:104600008523842781932F5F3F4F2530310569F73C
:104610000895609393017093940180939501909312
:1046200096010C943B220F931F9341E050E060E011
:1046300070E004C0440F551F661F771F8A95D2F79C
:10464000409550956095709580919301909194015B
:10465000A0919501B09196018A019B01082319232D
:104660002A233B23C901B8011F910F910C94092300
:104670000F931F9341E050E060E070E004C0440FEE
:10468000551F661F771F8A95D2F7809193019091ED
:104690009401A0919501B09196018A019B01082B8C
:1046A000192B2A2B3B2BC901B8011F910F910C9498
:1046B0000923609377027093780280937902909334
:1046C0007A020C943B22FC01808191810E94851723
:1046D00092959F70963079F010F4925001C09A50E4
:1046E000923068F4803F69F018F4883E40F409C0C5
:1046F000843F29F406C0883E20F0813F11F080E01D
:10470000089581E008951092750280910C0188232C
:1047100031F08091930387FF02C08EE101C086E0F3
:10472000EDEFF1E0DF011D928A95E9F70C943B2251
:10473000882321F00E9479160C948016089588230E
:1047400039F090917502892B809375020C94801634
:104750000895882309F45CC0823869F40E94BD1D65
:1047600081FF56C069E38BEF91E00E945C1D0E94BF
:10477000801669E30EC0833891F40E94BD1D80FF4E
:1047800047C063E58BEF91E00E945C1D0E9480169C
:1047900063E58BEF91E00E94341D0C948016843801
:1047A00069F40E94BD1D82FF33C067E48BEF91E086
:1047B0000E945C1D0E94801667E4EBCF9CEF980F6F
:1047C000913A10F4682FE5CF90E2980F983050F4AA
:1047D000877091E001C0990F8A95EAF7892F0E94AE
:1047E0007916DBCF9BE5980F933020F480E090E0C2
:1047F0000C94A71D98E5980F973120F480E090E085
:104800000C94911D8D3E20F00E9427210C94FD20D8
:104810000895CF93882309F4BEC0C82F8238B1F41D
:104820000E94BD1D81FDB7C069E38BEF91E00E943E
:104830005C1D0E9480162FEF81EE94E02150804095
:104840009040E1F700C0000069E317C08338E1F44D
:104850000E94BD1D80FD9FC063E58BEF91E00E942B
:104860005C1D0E9480162FEF81EE94E02150804065
:104870009040E1F700C0000063E58BEF91E00E94FB
:10488000341DCF910C9480168438B1F40E94BD1D64
:1048900082FD81C067E48BEF91E00E945C1D0E9465
:1048A00080162FEF81EE94E0215080409040E1F798
:1048B00000C0000067E4E1CF8CEF8C0F813AC0F5B7
:1048C00080910C018823E1F08091930387FF18C049
:1048D000EC2FE695E695E695F0E0E550FE4F8281F7
:1048E000282F30E04C2F477081E090E002C0880F05
:1048F000991F4A95E2F782239323892B61F412C012
:10490000EDEFF1E083E092E02191C21721F08E17E4
:104910009F07D1F707C06C2F8BEF91E00E94341DE9
:104920000E9480166C2F8BEF91E00E945C1DA9CF36
:1049300080E28C0F883068F4C77081E090E001C09D
:10494000880FCA95EAF790917502892B80937502BA
:1049500098CFEBE5EC0FE33040F4F0E0E75CFE4F7E
:10496000808190E0CF910C94A71DE8E5EC0FE73132
:1049700050F4F0E0EE0FFF1FE45CFE4F8081918168
:10498000CF910C94911DCD3E30F08C2F0E94E021F0
:10499000CF910C94FD20CF9108951F93CF93DF9377
:1049A000182FEB010E940924209741F08FE99FE026
:1049B0000197F1F700C000002197F6CF812FDF911A
:1049C000CF911F910C94A923F999FECF92BD81BD7F
:1049D000F89A992780B50895A6E1B0E044E050E048
:1049E0000C941E25A8E1B0E042E050E00C941E2596
:1049F000262FF999FECF92BD81BDF89A019700B498
:104A0000021639F01FBA20BD0FB6F894FA9AF99A37
:104A10000FBE08950396272F0E94F9240E94F824C0
:104A2000252F0E94F924242F0C94F9240196272F76
:104A30000E94F9240C94F824DC01CB01FC01F999C3
:104A4000FECF06C0F2BDE1BDF89A319600B40D92DA
:104A500041505040B8F7089587FB082E062687FD81
:104A6000819567FD61950E94BB250EF4919507FC29
:104A700081950895AA1BBB1B51E107C0AA1FBB1F4C
:104A8000A617B70710F0A61BB70B881F991F5A95DA
:104A9000A9F780959095BC01CD01089597FB072E4D
:104AA00016F4009407D077FD09D00E943A2507FC40
:104AB00005D03EF4909581959F4F0895709561952E
:104AC0007F4F0895A1E21A2EAA1BBB1BFD010DC04A
:104AD000AA1FBB1FEE1FFF1FA217B307E407F507AE
:104AE00020F0A21BB30BE40BF50B661F771F881F8A
:104AF000991F1A9469F760957095809590959B0120
:104B0000AC01BD01CF010895EE0FFF1F0590F49198
:104B1000E02D09940E949225332312F48A1B9B0BEB
:104B20000C94A325A29FB001B39FC001A39F700D59
:104B3000811D1124911DB29F700D811D1124911DA5
:104B400008950E949225B7FF0895821B930B089544
:104B50000E949225A59F900DB49F900DA49F800D5B
:104B6000911D11240895B7FF0C94A8250E94A82533
:104B7000821B930B0895991B79E004C0991F961727
:104B800008F0961B881F7A95C9F780950895FC0157
:104B90004150504030F001900616D1F73197CF01C7
:104BA0000895882799270895FB01DC0104C08D91A1
:104BB0000190801921F441505040C8F7881B990B8F
:064BC0000895F894FFCFF8
:104BC60046199C197D1979197519451901010201B2
:104BD60001191A1B1C1D1E1F20212266949091F498
:104BE600F5F6F7313300FF0100010000FFFF00007A
:104BF600010001FF009736C632818283E200E90098
:104C0600EA00B500B600B700CD008301CC008A01EA
:104C16009201940121022302240225022602270280
:104C26002A02B300B4006F00700000010202020203
:104C36000606060909090909090F0F0F0F0F0F15B7
:104C460015151819191919191919191919232400DB
:00000001FF
